{
  "_format": "hh-sol-artifact-1",
  "contractName": "ZkContract",
  "sourceName": "contracts/zkContract.sol",
  "abi": [
    {
      "anonymous": false,
      "inputs": [
        {
          "indexed": false,
          "internalType": "address",
          "name": "to",
          "type": "address"
        },
        {
          "indexed": false,
          "internalType": "uint256",
          "name": "nullifierHash",
          "type": "uint256"
        }
      ],
      "name": "Check",
      "type": "event"
    },
    {
      "inputs": [
        {
          "internalType": "uint256",
          "name": "com",
          "type": "uint256"
        }
      ],
      "name": "com_exists",
      "outputs": [
        {
          "internalType": "bool",
          "name": "",
          "type": "bool"
        }
      ],
      "stateMutability": "view",
      "type": "function"
    },
    {
      "inputs": [
        {
          "internalType": "uint256",
          "name": "_commitment",
          "type": "uint256"
        }
      ],
      "name": "minting",
      "outputs": [],
      "stateMutability": "nonpayable",
      "type": "function"
    },
    {
      "inputs": [
        {
          "internalType": "string",
          "name": "str",
          "type": "string"
        }
      ],
      "name": "null_exists",
      "outputs": [
        {
          "internalType": "bool",
          "name": "",
          "type": "bool"
        }
      ],
      "stateMutability": "view",
      "type": "function"
    },
    {
      "inputs": [
        {
          "internalType": "string",
          "name": "str",
          "type": "string"
        }
      ],
      "name": "registerNull",
      "outputs": [],
      "stateMutability": "nonpayable",
      "type": "function"
    },
    {
      "inputs": [
        {
          "internalType": "uint256",
          "name": "com",
          "type": "uint256"
        }
      ],
      "name": "regiterCom",
      "outputs": [],
      "stateMutability": "nonpayable",
      "type": "function"
    }
  ],
  "bytecode": "0x608060405234801561001057600080fd5b50610610806100206000396000f3fe608060405234801561001057600080fd5b50600436106100575760003560e01c80630af54ca31461005c578063602a859c1461008c578063785dfae8146100a8578063c25879a3146100d8578063f2cee92b146100f4575b600080fd5b610076600480360381019061007191906103f3565b610110565b6040516100839190610457565b60405180910390f35b6100a660048036038101906100a191906103f3565b610145565b005b6100c260048036038101906100bd91906104a8565b61017f565b6040516100cf9190610457565b60405180910390f35b6100f260048036038101906100ed91906104a8565b6101a9565b005b61010e600480360381019061010991906104a8565b6101d8565b005b60006002826040516101229190610546565b908152602001604051809103902060009054906101000a900460ff169050919050565b60016002826040516101579190610546565b908152602001604051809103902060006101000a81548160ff02191690831515021790555050565b60006003600083815260200190815260200160002060009054906101000a900460ff169050919050565b60016003600083815260200190815260200160002060006101000a81548160ff02191690831515021790555050565b6003600082815260200190815260200160002060009054906101000a900460ff1615610239576040517f08c379a0000000000000000000000000000000000000000000000000000000008152600401610230906105ba565b60405180910390fd5b6000819050610246610277565b60016003600085815260200190815260200160002060006101000a81548160ff021916908315150217905550505050565b6040518060400160405280600290602082028036833780820191505090505090565b6000604051905090565b600080fd5b600080fd5b600080fd5b600080fd5b6000601f19601f8301169050919050565b7f4e487b7100000000000000000000000000000000000000000000000000000000600052604160045260246000fd5b610300826102b7565b810181811067ffffffffffffffff8211171561031f5761031e6102c8565b5b80604052505050565b6000610332610299565b905061033e82826102f7565b919050565b600067ffffffffffffffff82111561035e5761035d6102c8565b5b610367826102b7565b9050602081019050919050565b82818337600083830152505050565b600061039661039184610343565b610328565b9050828152602081018484840111156103b2576103b16102b2565b5b6103bd848285610374565b509392505050565b600082601f8301126103da576103d96102ad565b5b81356103ea848260208601610383565b91505092915050565b600060208284031215610409576104086102a3565b5b600082013567ffffffffffffffff811115610427576104266102a8565b5b610433848285016103c5565b91505092915050565b60008115159050919050565b6104518161043c565b82525050565b600060208201905061046c6000830184610448565b92915050565b6000819050919050565b61048581610472565b811461049057600080fd5b50565b6000813590506104a28161047c565b92915050565b6000602082840312156104be576104bd6102a3565b5b60006104cc84828501610493565b91505092915050565b600081519050919050565b600081905092915050565b60005b838110156105095780820151818401526020810190506104ee565b60008484015250505050565b6000610520826104d5565b61052a81856104e0565b935061053a8185602086016104eb565b80840191505092915050565b60006105528284610515565b915081905092915050565b600082825260208201905092915050565b7f4475706c696361746520636f6d6d69746d656e7420686173682e000000000000600082015250565b60006105a4601a8361055d565b91506105af8261056e565b602082019050919050565b600060208201905081810360008301526105d381610597565b905091905056fea2646970667358221220286f2238d63eefd208e39ac4b04ed16af89198a49c6af41fbbcb29e97351eef464736f6c63430008110033",
  "linkReferences": {},
  "deployedLinkReferences": {}
}