{"contracts/MIMCSponge.sol":{"Hasher":{"abi":[{"inputs":[{"internalType":"uint256[2]","name":"_ins","type":"uint256[2]"},{"internalType":"uint256","name":"_k","type":"uint256"}],"name":"MiMC5Sponge","outputs":[{"internalType":"uint256","name":"h","type":"uint256"}],"stateMutability":"view","type":"function"}],"devdoc":{"kind":"dev","methods":{},"version":1},"evm":{"bytecode":{"linkReferences":{},"object":"60806040527f30644e72e131a029b85045b68181585d2833e84879b9709143e1f593f0000001600055604051806102800160405280600081526020017f391768a085a953882c2200e315dc6b6353e4791466d524980f97b786716ef44c81526020017f9d4f50cb64b2c7a8f7b2c17065bac3a4ef451cd9718db14693cc75cbb863089081526020017f71504526d8cd57565fca39e86feeb52100fecb23f9b81ab0ac066aef68328e3e81526020017f935b8800cf73aa9b083a4bdbfea0f4efeb5e0b1bb927455b4bc8a4bcc58e9a6681526020017f65731fa0feccca6cba08c176f5443dbaea0de6ae20993a97f6b709785897d20f81526020017f1fd61c6b69084af504ea1fa012821bb4af507d64efd9934b9bbf36705290f12d81526020017f40f253aa05d71624fe6759a1f5edd323d110996b3fcfba07abdf171a5f9de39981526020017f1e70e5f07fda6b0119e5c8f11aa869db08e948e2bc688cb4db0b4ee543c46f3e81526020017f790b360b1e8223e3834cfd88dd07eb3e4fb59e8bd83626fbdc9583d8877a15af81526020017f37a0de4d2c56628d40f1638628efb49c4c741fe881cf8a6e865ec71688b4487a81526020017fc7cb9fe85afe2450c4da8a32983cc0e6070d253c86e59bfd1fd24fcaa91c658a81526020017fcb6e8649b6a56e9277be3bf1d943244b79048284cdd78743a74863e58b9e198781526020017f594448aa40d994274590a8a5c4ab87b374317b4bbc013841ce844e4bf19805bb81526020017f01ff873d84b64b0d73eddd73625d1b5686a3d1f31db8d0086b3101bdb5a6f7ff81526020017ff810e1e9fad9cdb55d70a243eccd090c85f836ce991bb2190b0f0aab32d8e0b381526020017ffdcf72e9d11d20a02478305a7183c50ed3ddde3c9e80b2bf5efdaca8f87d651d81526020017ff66144aed21cec88adbe8c8f6cd05ee5407d8c06d39607d62584909149d3403c81526020017f8fa16e2ad5a7a87d70003c61c1d2a08fc9ab669e6b95350f28e01a15745c274581526020017fd99c9018257d4ec8c901b111feb6857c4219c3340ac68bf54ce4448a530375f9815250600190601461031b92919061032e565b5034801561032857600080fd5b5061038b565b826014810192821561035d579160200282015b8281111561035c578251825591602001919060010190610341565b5b50905061036a919061036e565b5090565b5b8082111561038757600081600090555060010161036f565b5090565b6104bd8061039a6000396000f3fe608060405234801561001057600080fd5b506004361061002b5760003560e01c8063d622e5a414610030575b600080fd5b61004a6004803603810190610045919061035a565b610060565b60405161005791906103a9565b60405180910390f35b600080600090506000805b60028160ff1610156100cd5760005480610088576100876103c4565b5b868260ff166002811061009e5761009d6103f3565b5b6020020151840892506100b28383876100d9565b809350819450505080806100c59061045e565b91505061006b565b50819250505092915050565b6000806000601490506000869050600086905060008060008060005b8760ff168160ff1610156101b85760005480610114576101136103c4565b5b8b870894506000548061012a576101296103c4565b5b60018260ff1660148110610141576101406103f3565b5b01548608945060005480610158576101576103c4565b5b85860993506000548061016e5761016d6103c4565b5b848509925060005480610184576101836103c4565b5b85840994508591506000548061019d5761019c6103c4565b5b858808955081965080806101b09061045e565b9150506100f5565b5085859850985050505050505050935093915050565b6000604051905090565b600080fd5b600080fd5b6000601f19601f8301169050919050565b7f4e487b7100000000000000000000000000000000000000000000000000000000600052604160045260246000fd5b61022b826101e2565b810181811067ffffffffffffffff8211171561024a576102496101f3565b5b80604052505050565b600061025d6101ce565b90506102698282610222565b919050565b600067ffffffffffffffff821115610289576102886101f3565b5b602082029050919050565b600080fd5b6000819050919050565b6102ac81610299565b81146102b757600080fd5b50565b6000813590506102c9816102a3565b92915050565b60006102e26102dd8461026e565b610253565b905080602084028301858111156102fc576102fb610294565b5b835b81811015610325578061031188826102ba565b8452602084019350506020810190506102fe565b5050509392505050565b600082601f830112610344576103436101dd565b5b60026103518482856102cf565b91505092915050565b60008060608385031215610371576103706101d8565b5b600061037f8582860161032f565b9250506040610390858286016102ba565b9150509250929050565b6103a381610299565b82525050565b60006020820190506103be600083018461039a565b92915050565b7f4e487b7100000000000000000000000000000000000000000000000000000000600052601260045260246000fd5b7f4e487b7100000000000000000000000000000000000000000000000000000000600052603260045260246000fd5b7f4e487b7100000000000000000000000000000000000000000000000000000000600052601160045260246000fd5b600060ff82169050919050565b600061046982610451565b915060ff820361047c5761047b610422565b5b60018201905091905056fea26469706673582212209c80260998a273fd38fe3b824a16713a4dfe07ec4a0e709cfa9c59b0ef6f1b8b64736f6c63430008110033","opcodes":"PUSH1 0x80 PUSH1 0x40 MSTORE PUSH32 0x30644E72E131A029B85045B68181585D2833E84879B9709143E1F593F0000001 PUSH1 0x0 SSTORE PUSH1 0x40 MLOAD DUP1 PUSH2 0x280 ADD PUSH1 0x40 MSTORE DUP1 PUSH1 0x0 DUP2 MSTORE PUSH1 0x20 ADD PUSH32 0x391768A085A953882C2200E315DC6B6353E4791466D524980F97B786716EF44C DUP2 MSTORE PUSH1 0x20 ADD PUSH32 0x9D4F50CB64B2C7A8F7B2C17065BAC3A4EF451CD9718DB14693CC75CBB8630890 DUP2 MSTORE PUSH1 0x20 ADD PUSH32 0x71504526D8CD57565FCA39E86FEEB52100FECB23F9B81AB0AC066AEF68328E3E DUP2 MSTORE PUSH1 0x20 ADD PUSH32 0x935B8800CF73AA9B083A4BDBFEA0F4EFEB5E0B1BB927455B4BC8A4BCC58E9A66 DUP2 MSTORE PUSH1 0x20 ADD PUSH32 0x65731FA0FECCCA6CBA08C176F5443DBAEA0DE6AE20993A97F6B709785897D20F DUP2 MSTORE PUSH1 0x20 ADD PUSH32 0x1FD61C6B69084AF504EA1FA012821BB4AF507D64EFD9934B9BBF36705290F12D DUP2 MSTORE PUSH1 0x20 ADD PUSH32 0x40F253AA05D71624FE6759A1F5EDD323D110996B3FCFBA07ABDF171A5F9DE399 DUP2 MSTORE PUSH1 0x20 ADD PUSH32 0x1E70E5F07FDA6B0119E5C8F11AA869DB08E948E2BC688CB4DB0B4EE543C46F3E DUP2 MSTORE PUSH1 0x20 ADD PUSH32 0x790B360B1E8223E3834CFD88DD07EB3E4FB59E8BD83626FBDC9583D8877A15AF DUP2 MSTORE PUSH1 0x20 ADD PUSH32 0x37A0DE4D2C56628D40F1638628EFB49C4C741FE881CF8A6E865EC71688B4487A DUP2 MSTORE PUSH1 0x20 ADD PUSH32 0xC7CB9FE85AFE2450C4DA8A32983CC0E6070D253C86E59BFD1FD24FCAA91C658A DUP2 MSTORE PUSH1 0x20 ADD PUSH32 0xCB6E8649B6A56E9277BE3BF1D943244B79048284CDD78743A74863E58B9E1987 DUP2 MSTORE PUSH1 0x20 ADD PUSH32 0x594448AA40D994274590A8A5C4AB87B374317B4BBC013841CE844E4BF19805BB DUP2 MSTORE PUSH1 0x20 ADD PUSH32 0x1FF873D84B64B0D73EDDD73625D1B5686A3D1F31DB8D0086B3101BDB5A6F7FF DUP2 MSTORE PUSH1 0x20 ADD PUSH32 0xF810E1E9FAD9CDB55D70A243ECCD090C85F836CE991BB2190B0F0AAB32D8E0B3 DUP2 MSTORE PUSH1 0x20 ADD PUSH32 0xFDCF72E9D11D20A02478305A7183C50ED3DDDE3C9E80B2BF5EFDACA8F87D651D DUP2 MSTORE PUSH1 0x20 ADD PUSH32 0xF66144AED21CEC88ADBE8C8F6CD05EE5407D8C06D39607D62584909149D3403C DUP2 MSTORE PUSH1 0x20 ADD PUSH32 0x8FA16E2AD5A7A87D70003C61C1D2A08FC9AB669E6B95350F28E01A15745C2745 DUP2 MSTORE PUSH1 0x20 ADD PUSH32 0xD99C9018257D4EC8C901B111FEB6857C4219C3340AC68BF54CE4448A530375F9 DUP2 MSTORE POP PUSH1 0x1 SWAP1 PUSH1 0x14 PUSH2 0x31B SWAP3 SWAP2 SWAP1 PUSH2 0x32E JUMP JUMPDEST POP CALLVALUE DUP1 ISZERO PUSH2 0x328 JUMPI PUSH1 0x0 DUP1 REVERT JUMPDEST POP PUSH2 0x38B JUMP JUMPDEST DUP3 PUSH1 0x14 DUP2 ADD SWAP3 DUP3 ISZERO PUSH2 0x35D JUMPI SWAP2 PUSH1 0x20 MUL DUP3 ADD JUMPDEST DUP3 DUP2 GT ISZERO PUSH2 0x35C JUMPI DUP3 MLOAD DUP3 SSTORE SWAP2 PUSH1 0x20 ADD SWAP2 SWAP1 PUSH1 0x1 ADD SWAP1 PUSH2 0x341 JUMP JUMPDEST JUMPDEST POP SWAP1 POP PUSH2 0x36A SWAP2 SWAP1 PUSH2 0x36E JUMP JUMPDEST POP SWAP1 JUMP JUMPDEST JUMPDEST DUP1 DUP3 GT ISZERO PUSH2 0x387 JUMPI PUSH1 0x0 DUP2 PUSH1 0x0 SWAP1 SSTORE POP PUSH1 0x1 ADD PUSH2 0x36F JUMP JUMPDEST POP SWAP1 JUMP JUMPDEST PUSH2 0x4BD DUP1 PUSH2 0x39A PUSH1 0x0 CODECOPY PUSH1 0x0 RETURN INVALID PUSH1 0x80 PUSH1 0x40 MSTORE CALLVALUE DUP1 ISZERO PUSH2 0x10 JUMPI PUSH1 0x0 DUP1 REVERT JUMPDEST POP PUSH1 0x4 CALLDATASIZE LT PUSH2 0x2B JUMPI PUSH1 0x0 CALLDATALOAD PUSH1 0xE0 SHR DUP1 PUSH4 0xD622E5A4 EQ PUSH2 0x30 JUMPI JUMPDEST PUSH1 0x0 DUP1 REVERT JUMPDEST PUSH2 0x4A PUSH1 0x4 DUP1 CALLDATASIZE SUB DUP2 ADD SWAP1 PUSH2 0x45 SWAP2 SWAP1 PUSH2 0x35A JUMP JUMPDEST PUSH2 0x60 JUMP JUMPDEST PUSH1 0x40 MLOAD PUSH2 0x57 SWAP2 SWAP1 PUSH2 0x3A9 JUMP JUMPDEST PUSH1 0x40 MLOAD DUP1 SWAP2 SUB SWAP1 RETURN JUMPDEST PUSH1 0x0 DUP1 PUSH1 0x0 SWAP1 POP PUSH1 0x0 DUP1 JUMPDEST PUSH1 0x2 DUP2 PUSH1 0xFF AND LT ISZERO PUSH2 0xCD JUMPI PUSH1 0x0 SLOAD DUP1 PUSH2 0x88 JUMPI PUSH2 0x87 PUSH2 0x3C4 JUMP JUMPDEST JUMPDEST DUP7 DUP3 PUSH1 0xFF AND PUSH1 0x2 DUP2 LT PUSH2 0x9E JUMPI PUSH2 0x9D PUSH2 0x3F3 JUMP JUMPDEST JUMPDEST PUSH1 0x20 MUL ADD MLOAD DUP5 ADDMOD SWAP3 POP PUSH2 0xB2 DUP4 DUP4 DUP8 PUSH2 0xD9 JUMP JUMPDEST DUP1 SWAP4 POP DUP2 SWAP5 POP POP POP DUP1 DUP1 PUSH2 0xC5 SWAP1 PUSH2 0x45E JUMP JUMPDEST SWAP2 POP POP PUSH2 0x6B JUMP JUMPDEST POP DUP2 SWAP3 POP POP POP SWAP3 SWAP2 POP POP JUMP JUMPDEST PUSH1 0x0 DUP1 PUSH1 0x0 PUSH1 0x14 SWAP1 POP PUSH1 0x0 DUP7 SWAP1 POP PUSH1 0x0 DUP7 SWAP1 POP PUSH1 0x0 DUP1 PUSH1 0x0 DUP1 PUSH1 0x0 JUMPDEST DUP8 PUSH1 0xFF AND DUP2 PUSH1 0xFF AND LT ISZERO PUSH2 0x1B8 JUMPI PUSH1 0x0 SLOAD DUP1 PUSH2 0x114 JUMPI PUSH2 0x113 PUSH2 0x3C4 JUMP JUMPDEST JUMPDEST DUP12 DUP8 ADDMOD SWAP5 POP PUSH1 0x0 SLOAD DUP1 PUSH2 0x12A JUMPI PUSH2 0x129 PUSH2 0x3C4 JUMP JUMPDEST JUMPDEST PUSH1 0x1 DUP3 PUSH1 0xFF AND PUSH1 0x14 DUP2 LT PUSH2 0x141 JUMPI PUSH2 0x140 PUSH2 0x3F3 JUMP JUMPDEST JUMPDEST ADD SLOAD DUP7 ADDMOD SWAP5 POP PUSH1 0x0 SLOAD DUP1 PUSH2 0x158 JUMPI PUSH2 0x157 PUSH2 0x3C4 JUMP JUMPDEST JUMPDEST DUP6 DUP7 MULMOD SWAP4 POP PUSH1 0x0 SLOAD DUP1 PUSH2 0x16E JUMPI PUSH2 0x16D PUSH2 0x3C4 JUMP JUMPDEST JUMPDEST DUP5 DUP6 MULMOD SWAP3 POP PUSH1 0x0 SLOAD DUP1 PUSH2 0x184 JUMPI PUSH2 0x183 PUSH2 0x3C4 JUMP JUMPDEST JUMPDEST DUP6 DUP5 MULMOD SWAP5 POP DUP6 SWAP2 POP PUSH1 0x0 SLOAD DUP1 PUSH2 0x19D JUMPI PUSH2 0x19C PUSH2 0x3C4 JUMP JUMPDEST JUMPDEST DUP6 DUP9 ADDMOD SWAP6 POP DUP2 SWAP7 POP DUP1 DUP1 PUSH2 0x1B0 SWAP1 PUSH2 0x45E JUMP JUMPDEST SWAP2 POP POP PUSH2 0xF5 JUMP JUMPDEST POP DUP6 DUP6 SWAP9 POP SWAP9 POP POP POP POP POP POP POP POP SWAP4 POP SWAP4 SWAP2 POP POP JUMP JUMPDEST PUSH1 0x0 PUSH1 0x40 MLOAD SWAP1 POP SWAP1 JUMP JUMPDEST PUSH1 0x0 DUP1 REVERT JUMPDEST PUSH1 0x0 DUP1 REVERT JUMPDEST PUSH1 0x0 PUSH1 0x1F NOT PUSH1 0x1F DUP4 ADD AND SWAP1 POP SWAP2 SWAP1 POP JUMP JUMPDEST PUSH32 0x4E487B7100000000000000000000000000000000000000000000000000000000 PUSH1 0x0 MSTORE PUSH1 0x41 PUSH1 0x4 MSTORE PUSH1 0x24 PUSH1 0x0 REVERT JUMPDEST PUSH2 0x22B DUP3 PUSH2 0x1E2 JUMP JUMPDEST DUP2 ADD DUP2 DUP2 LT PUSH8 0xFFFFFFFFFFFFFFFF DUP3 GT OR ISZERO PUSH2 0x24A JUMPI PUSH2 0x249 PUSH2 0x1F3 JUMP JUMPDEST JUMPDEST DUP1 PUSH1 0x40 MSTORE POP POP POP JUMP JUMPDEST PUSH1 0x0 PUSH2 0x25D PUSH2 0x1CE JUMP JUMPDEST SWAP1 POP PUSH2 0x269 DUP3 DUP3 PUSH2 0x222 JUMP JUMPDEST SWAP2 SWAP1 POP JUMP JUMPDEST PUSH1 0x0 PUSH8 0xFFFFFFFFFFFFFFFF DUP3 GT ISZERO PUSH2 0x289 JUMPI PUSH2 0x288 PUSH2 0x1F3 JUMP JUMPDEST JUMPDEST PUSH1 0x20 DUP3 MUL SWAP1 POP SWAP2 SWAP1 POP JUMP JUMPDEST PUSH1 0x0 DUP1 REVERT JUMPDEST PUSH1 0x0 DUP2 SWAP1 POP SWAP2 SWAP1 POP JUMP JUMPDEST PUSH2 0x2AC DUP2 PUSH2 0x299 JUMP JUMPDEST DUP2 EQ PUSH2 0x2B7 JUMPI PUSH1 0x0 DUP1 REVERT JUMPDEST POP JUMP JUMPDEST PUSH1 0x0 DUP2 CALLDATALOAD SWAP1 POP PUSH2 0x2C9 DUP2 PUSH2 0x2A3 JUMP JUMPDEST SWAP3 SWAP2 POP POP JUMP JUMPDEST PUSH1 0x0 PUSH2 0x2E2 PUSH2 0x2DD DUP5 PUSH2 0x26E JUMP JUMPDEST PUSH2 0x253 JUMP JUMPDEST SWAP1 POP DUP1 PUSH1 0x20 DUP5 MUL DUP4 ADD DUP6 DUP2 GT ISZERO PUSH2 0x2FC JUMPI PUSH2 0x2FB PUSH2 0x294 JUMP JUMPDEST JUMPDEST DUP4 JUMPDEST DUP2 DUP2 LT ISZERO PUSH2 0x325 JUMPI DUP1 PUSH2 0x311 DUP9 DUP3 PUSH2 0x2BA JUMP JUMPDEST DUP5 MSTORE PUSH1 0x20 DUP5 ADD SWAP4 POP POP PUSH1 0x20 DUP2 ADD SWAP1 POP PUSH2 0x2FE JUMP JUMPDEST POP POP POP SWAP4 SWAP3 POP POP POP JUMP JUMPDEST PUSH1 0x0 DUP3 PUSH1 0x1F DUP4 ADD SLT PUSH2 0x344 JUMPI PUSH2 0x343 PUSH2 0x1DD JUMP JUMPDEST JUMPDEST PUSH1 0x2 PUSH2 0x351 DUP5 DUP3 DUP6 PUSH2 0x2CF JUMP JUMPDEST SWAP2 POP POP SWAP3 SWAP2 POP POP JUMP JUMPDEST PUSH1 0x0 DUP1 PUSH1 0x60 DUP4 DUP6 SUB SLT ISZERO PUSH2 0x371 JUMPI PUSH2 0x370 PUSH2 0x1D8 JUMP JUMPDEST JUMPDEST PUSH1 0x0 PUSH2 0x37F DUP6 DUP3 DUP7 ADD PUSH2 0x32F JUMP JUMPDEST SWAP3 POP POP PUSH1 0x40 PUSH2 0x390 DUP6 DUP3 DUP7 ADD PUSH2 0x2BA JUMP JUMPDEST SWAP2 POP POP SWAP3 POP SWAP3 SWAP1 POP JUMP JUMPDEST PUSH2 0x3A3 DUP2 PUSH2 0x299 JUMP JUMPDEST DUP3 MSTORE POP POP JUMP JUMPDEST PUSH1 0x0 PUSH1 0x20 DUP3 ADD SWAP1 POP PUSH2 0x3BE PUSH1 0x0 DUP4 ADD DUP5 PUSH2 0x39A JUMP JUMPDEST SWAP3 SWAP2 POP POP JUMP JUMPDEST PUSH32 0x4E487B7100000000000000000000000000000000000000000000000000000000 PUSH1 0x0 MSTORE PUSH1 0x12 PUSH1 0x4 MSTORE PUSH1 0x24 PUSH1 0x0 REVERT JUMPDEST PUSH32 0x4E487B7100000000000000000000000000000000000000000000000000000000 PUSH1 0x0 MSTORE PUSH1 0x32 PUSH1 0x4 MSTORE PUSH1 0x24 PUSH1 0x0 REVERT JUMPDEST PUSH32 0x4E487B7100000000000000000000000000000000000000000000000000000000 PUSH1 0x0 MSTORE PUSH1 0x11 PUSH1 0x4 MSTORE PUSH1 0x24 PUSH1 0x0 REVERT JUMPDEST PUSH1 0x0 PUSH1 0xFF DUP3 AND SWAP1 POP SWAP2 SWAP1 POP JUMP JUMPDEST PUSH1 0x0 PUSH2 0x469 DUP3 PUSH2 0x451 JUMP JUMPDEST SWAP2 POP PUSH1 0xFF DUP3 SUB PUSH2 0x47C JUMPI PUSH2 0x47B PUSH2 0x422 JUMP JUMPDEST JUMPDEST PUSH1 0x1 DUP3 ADD SWAP1 POP SWAP2 SWAP1 POP JUMP INVALID LOG2 PUSH5 0x6970667358 0x22 SLT KECCAK256 SWAP13 DUP1 0x26 MULMOD SWAP9 LOG2 PUSH20 0xFD38FE3B824A16713A4DFE07EC4A0E709CFA9C59 0xB0 0xEF PUSH16 0x1B8B64736F6C63430008110033000000 "},"gasEstimates":{"creation":{"codeDepositCost":"242600","executionCost":"infinite","totalCost":"infinite"},"external":{"MiMC5Sponge(uint256[2],uint256)":"infinite"},"internal":{"MiMC5Feistel(uint256,uint256,uint256)":"infinite"}},"methodIdentifiers":{"MiMC5Sponge(uint256[2],uint256)":"d622e5a4"}},"storageLayout":{"storage":[{"astId":2871,"contract":"contracts/MIMCSponge.sol:Hasher","label":"p","offset":0,"slot":"0","type":"t_uint256"},{"astId":2896,"contract":"contracts/MIMCSponge.sol:Hasher","label":"c","offset":0,"slot":"1","type":"t_array(t_uint256)20_storage"}],"types":{"t_array(t_uint256)20_storage":{"base":"t_uint256","encoding":"inplace","label":"uint256[20]","numberOfBytes":"640"},"t_uint256":{"encoding":"inplace","label":"uint256","numberOfBytes":"32"}}},"userdoc":{"kind":"user","methods":{},"version":1}}}}