{
  "_format": "hh-sol-artifact-1",
  "contractName": "ConvertToERC721",
  "sourceName": "contracts/convertToERC721.sol",
  "abi": [
    {
      "inputs": [
        {
          "internalType": "string",
          "name": "str1",
          "type": "string"
        },
        {
          "internalType": "string",
          "name": "str2",
          "type": "string"
        }
      ],
      "stateMutability": "nonpayable",
      "type": "constructor"
    },
    {
      "anonymous": false,
      "inputs": [
        {
          "indexed": true,
          "internalType": "address",
          "name": "owner",
          "type": "address"
        },
        {
          "indexed": true,
          "internalType": "address",
          "name": "approved",
          "type": "address"
        },
        {
          "indexed": true,
          "internalType": "uint256",
          "name": "tokenId",
          "type": "uint256"
        }
      ],
      "name": "Approval",
      "type": "event"
    },
    {
      "anonymous": false,
      "inputs": [
        {
          "indexed": true,
          "internalType": "address",
          "name": "owner",
          "type": "address"
        },
        {
          "indexed": true,
          "internalType": "address",
          "name": "operator",
          "type": "address"
        },
        {
          "indexed": false,
          "internalType": "bool",
          "name": "approved",
          "type": "bool"
        }
      ],
      "name": "ApprovalForAll",
      "type": "event"
    },
    {
      "anonymous": false,
      "inputs": [
        {
          "indexed": false,
          "internalType": "uint256",
          "name": "_fromTokenId",
          "type": "uint256"
        },
        {
          "indexed": false,
          "internalType": "uint256",
          "name": "_toTokenId",
          "type": "uint256"
        }
      ],
      "name": "BatchMetadataUpdate",
      "type": "event"
    },
    {
      "anonymous": false,
      "inputs": [
        {
          "indexed": false,
          "internalType": "uint256",
          "name": "_tokenId",
          "type": "uint256"
        }
      ],
      "name": "MetadataUpdate",
      "type": "event"
    },
    {
      "anonymous": false,
      "inputs": [
        {
          "indexed": true,
          "internalType": "address",
          "name": "from",
          "type": "address"
        },
        {
          "indexed": true,
          "internalType": "address",
          "name": "to",
          "type": "address"
        },
        {
          "indexed": true,
          "internalType": "uint256",
          "name": "tokenId",
          "type": "uint256"
        }
      ],
      "name": "Transfer",
      "type": "event"
    },
    {
      "inputs": [
        {
          "internalType": "address",
          "name": "to",
          "type": "address"
        },
        {
          "internalType": "uint256",
          "name": "tokenId",
          "type": "uint256"
        }
      ],
      "name": "approve",
      "outputs": [],
      "stateMutability": "nonpayable",
      "type": "function"
    },
    {
      "inputs": [
        {
          "internalType": "address",
          "name": "owner",
          "type": "address"
        }
      ],
      "name": "balanceOf",
      "outputs": [
        {
          "internalType": "uint256",
          "name": "",
          "type": "uint256"
        }
      ],
      "stateMutability": "view",
      "type": "function"
    },
    {
      "inputs": [
        {
          "internalType": "uint256",
          "name": "tokenId",
          "type": "uint256"
        }
      ],
      "name": "getApproved",
      "outputs": [
        {
          "internalType": "address",
          "name": "",
          "type": "address"
        }
      ],
      "stateMutability": "view",
      "type": "function"
    },
    {
      "inputs": [
        {
          "internalType": "address",
          "name": "owner",
          "type": "address"
        },
        {
          "internalType": "address",
          "name": "operator",
          "type": "address"
        }
      ],
      "name": "isApprovedForAll",
      "outputs": [
        {
          "internalType": "bool",
          "name": "",
          "type": "bool"
        }
      ],
      "stateMutability": "view",
      "type": "function"
    },
    {
      "inputs": [
        {
          "internalType": "address",
          "name": "to",
          "type": "address"
        },
        {
          "internalType": "string",
          "name": "uri",
          "type": "string"
        }
      ],
      "name": "mintNft",
      "outputs": [],
      "stateMutability": "nonpayable",
      "type": "function"
    },
    {
      "inputs": [],
      "name": "name",
      "outputs": [
        {
          "internalType": "string",
          "name": "",
          "type": "string"
        }
      ],
      "stateMutability": "view",
      "type": "function"
    },
    {
      "inputs": [
        {
          "internalType": "uint256",
          "name": "tokenId",
          "type": "uint256"
        }
      ],
      "name": "ownerOf",
      "outputs": [
        {
          "internalType": "address",
          "name": "",
          "type": "address"
        }
      ],
      "stateMutability": "view",
      "type": "function"
    },
    {
      "inputs": [
        {
          "internalType": "address",
          "name": "from",
          "type": "address"
        },
        {
          "internalType": "address",
          "name": "to",
          "type": "address"
        },
        {
          "internalType": "uint256",
          "name": "tokenId",
          "type": "uint256"
        }
      ],
      "name": "safeTransferFrom",
      "outputs": [],
      "stateMutability": "nonpayable",
      "type": "function"
    },
    {
      "inputs": [
        {
          "internalType": "address",
          "name": "from",
          "type": "address"
        },
        {
          "internalType": "address",
          "name": "to",
          "type": "address"
        },
        {
          "internalType": "uint256",
          "name": "tokenId",
          "type": "uint256"
        },
        {
          "internalType": "bytes",
          "name": "data",
          "type": "bytes"
        }
      ],
      "name": "safeTransferFrom",
      "outputs": [],
      "stateMutability": "nonpayable",
      "type": "function"
    },
    {
      "inputs": [
        {
          "internalType": "address",
          "name": "operator",
          "type": "address"
        },
        {
          "internalType": "bool",
          "name": "approved",
          "type": "bool"
        }
      ],
      "name": "setApprovalForAll",
      "outputs": [],
      "stateMutability": "nonpayable",
      "type": "function"
    },
    {
      "inputs": [
        {
          "internalType": "bytes4",
          "name": "interfaceId",
          "type": "bytes4"
        }
      ],
      "name": "supportsInterface",
      "outputs": [
        {
          "internalType": "bool",
          "name": "",
          "type": "bool"
        }
      ],
      "stateMutability": "view",
      "type": "function"
    },
    {
      "inputs": [],
      "name": "symbol",
      "outputs": [
        {
          "internalType": "string",
          "name": "",
          "type": "string"
        }
      ],
      "stateMutability": "view",
      "type": "function"
    },
    {
      "inputs": [],
      "name": "tokenCounter",
      "outputs": [
        {
          "internalType": "uint256",
          "name": "",
          "type": "uint256"
        }
      ],
      "stateMutability": "view",
      "type": "function"
    },
    {
      "inputs": [
        {
          "internalType": "uint256",
          "name": "tokenId",
          "type": "uint256"
        }
      ],
      "name": "tokenURI",
      "outputs": [
        {
          "internalType": "string",
          "name": "",
          "type": "string"
        }
      ],
      "stateMutability": "view",
      "type": "function"
    },
    {
      "inputs": [
        {
          "internalType": "address",
          "name": "from",
          "type": "address"
        },
        {
          "internalType": "address",
          "name": "to",
          "type": "address"
        },
        {
          "internalType": "uint256",
          "name": "tokenId",
          "type": "uint256"
        }
      ],
      "name": "transferFrom",
      "outputs": [],
      "stateMutability": "nonpayable",
      "type": "function"
    }
  ],
  "bytecode": "0x60806040523480156200001157600080fd5b506040516200311338038062003113833981810160405281019062000037919062000202565b818181600090816200004a9190620004d2565b5080600190816200005c9190620004d2565b50505060006007819055505050620005b9565b6000604051905090565b600080fd5b600080fd5b600080fd5b600080fd5b6000601f19601f8301169050919050565b7f4e487b7100000000000000000000000000000000000000000000000000000000600052604160045260246000fd5b620000d8826200008d565b810181811067ffffffffffffffff82111715620000fa57620000f96200009e565b5b80604052505050565b60006200010f6200006f565b90506200011d8282620000cd565b919050565b600067ffffffffffffffff82111562000140576200013f6200009e565b5b6200014b826200008d565b9050602081019050919050565b60005b83811015620001785780820151818401526020810190506200015b565b60008484015250505050565b60006200019b620001958462000122565b62000103565b905082815260208101848484011115620001ba57620001b962000088565b5b620001c784828562000158565b509392505050565b600082601f830112620001e757620001e662000083565b5b8151620001f984826020860162000184565b91505092915050565b600080604083850312156200021c576200021b62000079565b5b600083015167ffffffffffffffff8111156200023d576200023c6200007e565b5b6200024b85828601620001cf565b925050602083015167ffffffffffffffff8111156200026f576200026e6200007e565b5b6200027d85828601620001cf565b9150509250929050565b600081519050919050565b7f4e487b7100000000000000000000000000000000000000000000000000000000600052602260045260246000fd5b60006002820490506001821680620002da57607f821691505b602082108103620002f057620002ef62000292565b5b50919050565b60008190508160005260206000209050919050565b60006020601f8301049050919050565b600082821b905092915050565b6000600883026200035a7fffffffffffffffffffffffffffffffffffffffffffffffffffffffffffffffff826200031b565b6200036686836200031b565b95508019841693508086168417925050509392505050565b6000819050919050565b6000819050919050565b6000620003b3620003ad620003a7846200037e565b62000388565b6200037e565b9050919050565b6000819050919050565b620003cf8362000392565b620003e7620003de82620003ba565b84845462000328565b825550505050565b600090565b620003fe620003ef565b6200040b818484620003c4565b505050565b5b81811015620004335762000427600082620003f4565b60018101905062000411565b5050565b601f82111562000482576200044c81620002f6565b62000457846200030b565b8101602085101562000467578190505b6200047f62000476856200030b565b83018262000410565b50505b505050565b600082821c905092915050565b6000620004a76000198460080262000487565b1980831691505092915050565b6000620004c2838362000494565b9150826002028217905092915050565b620004dd8262000287565b67ffffffffffffffff811115620004f957620004f86200009e565b5b620005058254620002c1565b6200051282828562000437565b600060209050601f8311600181146200054a576000841562000535578287015190505b620005418582620004b4565b865550620005b1565b601f1984166200055a86620002f6565b60005b8281101562000584578489015182556001820191506020850194506020810190506200055d565b86831015620005a45784890151620005a0601f89168262000494565b8355505b6001600288020188555050505b505050505050565b612b4a80620005c96000396000f3fe608060405234801561001057600080fd5b50600436106100f55760003560e01c80636352211e11610097578063b88d4fde11610066578063b88d4fde14610282578063c87b56dd1461029e578063d082e381146102ce578063e985e9c5146102ec576100f5565b80636352211e146101e857806370a082311461021857806395d89b4114610248578063a22cb46514610266576100f5565b8063095ea7b3116100d3578063095ea7b31461017857806311f87b191461019457806323b872dd146101b057806342842e0e146101cc576100f5565b806301ffc9a7146100fa57806306fdde031461012a578063081812fc14610148575b600080fd5b610114600480360381019061010f91906119c2565b61031c565b6040516101219190611a0a565b60405180910390f35b61013261037d565b60405161013f9190611ab5565b60405180910390f35b610162600480360381019061015d9190611b0d565b61040f565b60405161016f9190611b7b565b60405180910390f35b610192600480360381019061018d9190611bc2565b610455565b005b6101ae60048036038101906101a99190611d37565b61056c565b005b6101ca60048036038101906101c59190611d93565b6105a0565b005b6101e660048036038101906101e19190611d93565b610600565b005b61020260048036038101906101fd9190611b0d565b610620565b60405161020f9190611b7b565b60405180910390f35b610232600480360381019061022d9190611de6565b6106a6565b60405161023f9190611e22565b60405180910390f35b61025061075d565b60405161025d9190611ab5565b60405180910390f35b610280600480360381019061027b9190611e69565b6107ef565b005b61029c60048036038101906102979190611f4a565b610805565b005b6102b860048036038101906102b39190611b0d565b610867565b6040516102c59190611ab5565b60405180910390f35b6102d6610979565b6040516102e39190611e22565b60405180910390f35b61030660048036038101906103019190611fcd565b61097f565b6040516103139190611a0a565b60405180910390f35b6000634906490660e01b7bffffffffffffffffffffffffffffffffffffffffffffffffffffffff1916827bffffffffffffffffffffffffffffffffffffffffffffffffffffffff19161480610376575061037582610a13565b5b9050919050565b60606000805461038c9061203c565b80601f01602080910402602001604051908101604052809291908181526020018280546103b89061203c565b80156104055780601f106103da57610100808354040283529160200191610405565b820191906000526020600020905b8154815290600101906020018083116103e857829003601f168201915b5050505050905090565b600061041a82610af5565b6004600083815260200190815260200160002060009054906101000a900473ffffffffffffffffffffffffffffffffffffffff169050919050565b600061046082610620565b90508073ffffffffffffffffffffffffffffffffffffffff168373ffffffffffffffffffffffffffffffffffffffff16036104d0576040517f08c379a00000000000000000000000000000000000000000000000000000000081526004016104c7906120df565b60405180910390fd5b8073ffffffffffffffffffffffffffffffffffffffff166104ef610b40565b73ffffffffffffffffffffffffffffffffffffffff16148061051e575061051d81610518610b40565b61097f565b5b61055d576040517f08c379a000000000000000000000000000000000000000000000000000000000815260040161055490612171565b60405180910390fd5b6105678383610b48565b505050565b61057882600754610c01565b61058460075482610e1e565b60076000815480929190610597906121c0565b91905055505050565b6105b16105ab610b40565b82610ec2565b6105f0576040517f08c379a00000000000000000000000000000000000000000000000000000000081526004016105e79061227a565b60405180910390fd5b6105fb838383610f57565b505050565b61061b83838360405180602001604052806000815250610805565b505050565b60008061062c83611250565b9050600073ffffffffffffffffffffffffffffffffffffffff168173ffffffffffffffffffffffffffffffffffffffff160361069d576040517f08c379a0000000000000000000000000000000000000000000000000000000008152600401610694906122e6565b60405180910390fd5b80915050919050565b60008073ffffffffffffffffffffffffffffffffffffffff168273ffffffffffffffffffffffffffffffffffffffff1603610716576040517f08c379a000000000000000000000000000000000000000000000000000000000815260040161070d90612378565b60405180910390fd5b600360008373ffffffffffffffffffffffffffffffffffffffff1673ffffffffffffffffffffffffffffffffffffffff168152602001908152602001600020549050919050565b60606001805461076c9061203c565b80601f01602080910402602001604051908101604052809291908181526020018280546107989061203c565b80156107e55780601f106107ba576101008083540402835291602001916107e5565b820191906000526020600020905b8154815290600101906020018083116107c857829003601f168201915b5050505050905090565b6108016107fa610b40565b838361128d565b5050565b610816610810610b40565b83610ec2565b610855576040517f08c379a000000000000000000000000000000000000000000000000000000000815260040161084c9061227a565b60405180910390fd5b610861848484846113f9565b50505050565b606061087282610af5565b60006006600084815260200190815260200160002080546108929061203c565b80601f01602080910402602001604051908101604052809291908181526020018280546108be9061203c565b801561090b5780601f106108e05761010080835404028352916020019161090b565b820191906000526020600020905b8154815290600101906020018083116108ee57829003601f168201915b50505050509050600061091c611455565b90506000815103610931578192505050610974565b60008251111561096657808260405160200161094e9291906123d4565b60405160208183030381529060405292505050610974565b61096f8461146c565b925050505b919050565b60075481565b6000600560008473ffffffffffffffffffffffffffffffffffffffff1673ffffffffffffffffffffffffffffffffffffffff16815260200190815260200160002060008373ffffffffffffffffffffffffffffffffffffffff1673ffffffffffffffffffffffffffffffffffffffff16815260200190815260200160002060009054906101000a900460ff16905092915050565b60007f80ac58cd000000000000000000000000000000000000000000000000000000007bffffffffffffffffffffffffffffffffffffffffffffffffffffffff1916827bffffffffffffffffffffffffffffffffffffffffffffffffffffffff19161480610ade57507f5b5e139f000000000000000000000000000000000000000000000000000000007bffffffffffffffffffffffffffffffffffffffffffffffffffffffff1916827bffffffffffffffffffffffffffffffffffffffffffffffffffffffff1916145b80610aee5750610aed826114d4565b5b9050919050565b610afe8161153e565b610b3d576040517f08c379a0000000000000000000000000000000000000000000000000000000008152600401610b34906122e6565b60405180910390fd5b50565b600033905090565b816004600083815260200190815260200160002060006101000a81548173ffffffffffffffffffffffffffffffffffffffff021916908373ffffffffffffffffffffffffffffffffffffffff160217905550808273ffffffffffffffffffffffffffffffffffffffff16610bbb83610620565b73ffffffffffffffffffffffffffffffffffffffff167f8c5be1e5ebec7d5bd14f71427d1e84f3dd0314c0f7b2291e5b200ac8c7c3b92560405160405180910390a45050565b600073ffffffffffffffffffffffffffffffffffffffff168273ffffffffffffffffffffffffffffffffffffffff1603610c70576040517f08c379a0000000000000000000000000000000000000000000000000000000008152600401610c6790612444565b60405180910390fd5b610c798161153e565b15610cb9576040517f08c379a0000000000000000000000000000000000000000000000000000000008152600401610cb0906124b0565b60405180910390fd5b610cc760008383600161157f565b610cd08161153e565b15610d10576040517f08c379a0000000000000000000000000000000000000000000000000000000008152600401610d07906124b0565b60405180910390fd5b6001600360008473ffffffffffffffffffffffffffffffffffffffff1673ffffffffffffffffffffffffffffffffffffffff16815260200190815260200160002060008282540192505081905550816002600083815260200190815260200160002060006101000a81548173ffffffffffffffffffffffffffffffffffffffff021916908373ffffffffffffffffffffffffffffffffffffffff160217905550808273ffffffffffffffffffffffffffffffffffffffff16600073ffffffffffffffffffffffffffffffffffffffff167fddf252ad1be2c89b69c2b068fc378daa952ba7f163c4a11628f55a4df523b3ef60405160405180910390a4610e1a600083836001611585565b5050565b610e278261153e565b610e66576040517f08c379a0000000000000000000000000000000000000000000000000000000008152600401610e5d90612542565b60405180910390fd5b80600660008481526020019081526020016000209081610e86919061270e565b507ff8e1a15aba9398e019f0b49df1a4fde98ee17ae345cb5f6b5e2c27f5033e8ce782604051610eb69190611e22565b60405180910390a15050565b600080610ece83610620565b90508073ffffffffffffffffffffffffffffffffffffffff168473ffffffffffffffffffffffffffffffffffffffff161480610f105750610f0f818561097f565b5b80610f4e57508373ffffffffffffffffffffffffffffffffffffffff16610f368461040f565b73ffffffffffffffffffffffffffffffffffffffff16145b91505092915050565b8273ffffffffffffffffffffffffffffffffffffffff16610f7782610620565b73ffffffffffffffffffffffffffffffffffffffff1614610fcd576040517f08c379a0000000000000000000000000000000000000000000000000000000008152600401610fc490612852565b60405180910390fd5b600073ffffffffffffffffffffffffffffffffffffffff168273ffffffffffffffffffffffffffffffffffffffff160361103c576040517f08c379a0000000000000000000000000000000000000000000000000000000008152600401611033906128e4565b60405180910390fd5b611049838383600161157f565b8273ffffffffffffffffffffffffffffffffffffffff1661106982610620565b73ffffffffffffffffffffffffffffffffffffffff16146110bf576040517f08c379a00000000000000000000000000000000000000000000000000000000081526004016110b690612852565b60405180910390fd5b6004600082815260200190815260200160002060006101000a81549073ffffffffffffffffffffffffffffffffffffffff02191690556001600360008573ffffffffffffffffffffffffffffffffffffffff1673ffffffffffffffffffffffffffffffffffffffff168152602001908152602001600020600082825403925050819055506001600360008473ffffffffffffffffffffffffffffffffffffffff1673ffffffffffffffffffffffffffffffffffffffff16815260200190815260200160002060008282540192505081905550816002600083815260200190815260200160002060006101000a81548173ffffffffffffffffffffffffffffffffffffffff021916908373ffffffffffffffffffffffffffffffffffffffff160217905550808273ffffffffffffffffffffffffffffffffffffffff168473ffffffffffffffffffffffffffffffffffffffff167fddf252ad1be2c89b69c2b068fc378daa952ba7f163c4a11628f55a4df523b3ef60405160405180910390a461124b8383836001611585565b505050565b60006002600083815260200190815260200160002060009054906101000a900473ffffffffffffffffffffffffffffffffffffffff169050919050565b8173ffffffffffffffffffffffffffffffffffffffff168373ffffffffffffffffffffffffffffffffffffffff16036112fb576040517f08c379a00000000000000000000000000000000000000000000000000000000081526004016112f290612950565b60405180910390fd5b80600560008573ffffffffffffffffffffffffffffffffffffffff1673ffffffffffffffffffffffffffffffffffffffff16815260200190815260200160002060008473ffffffffffffffffffffffffffffffffffffffff1673ffffffffffffffffffffffffffffffffffffffff16815260200190815260200160002060006101000a81548160ff0219169083151502179055508173ffffffffffffffffffffffffffffffffffffffff168373ffffffffffffffffffffffffffffffffffffffff167f17307eab39ab6107e8899845ad3d59bd9653f200f220920489ca2b5937696c31836040516113ec9190611a0a565b60405180910390a3505050565b611404848484610f57565b6114108484848461158b565b61144f576040517f08c379a0000000000000000000000000000000000000000000000000000000008152600401611446906129e2565b60405180910390fd5b50505050565b606060405180602001604052806000815250905090565b606061147782610af5565b6000611481611455565b905060008151116114a157604051806020016040528060008152506114cc565b806114ab84611712565b6040516020016114bc9291906123d4565b6040516020818303038152906040525b915050919050565b60007f01ffc9a7000000000000000000000000000000000000000000000000000000007bffffffffffffffffffffffffffffffffffffffffffffffffffffffff1916827bffffffffffffffffffffffffffffffffffffffffffffffffffffffff1916149050919050565b60008073ffffffffffffffffffffffffffffffffffffffff1661156083611250565b73ffffffffffffffffffffffffffffffffffffffff1614159050919050565b50505050565b50505050565b60006115ac8473ffffffffffffffffffffffffffffffffffffffff166117e0565b15611705578373ffffffffffffffffffffffffffffffffffffffff1663150b7a026115d5610b40565b8786866040518563ffffffff1660e01b81526004016115f79493929190612a57565b6020604051808303816000875af192505050801561163357506040513d601f19601f820116820180604052508101906116309190612ab8565b60015b6116b5573d8060008114611663576040519150601f19603f3d011682016040523d82523d6000602084013e611668565b606091505b5060008151036116ad576040517f08c379a00000000000000000000000000000000000000000000000000000000081526004016116a4906129e2565b60405180910390fd5b805181602001fd5b63150b7a0260e01b7bffffffffffffffffffffffffffffffffffffffffffffffffffffffff1916817bffffffffffffffffffffffffffffffffffffffffffffffffffffffff19161491505061170a565b600190505b949350505050565b60606000600161172184611803565b01905060008167ffffffffffffffff8111156117405761173f611c0c565b5b6040519080825280601f01601f1916602001820160405280156117725781602001600182028036833780820191505090505b509050600082602001820190505b6001156117d5578080600190039150507f3031323334353637383961626364656600000000000000000000000000000000600a86061a8153600a85816117c9576117c8612ae5565b5b04945060008503611780575b819350505050919050565b6000808273ffffffffffffffffffffffffffffffffffffffff163b119050919050565b600080600090507a184f03e93ff9f4daa797ed6e38ed64bf6a1f0100000000000000008310611861577a184f03e93ff9f4daa797ed6e38ed64bf6a1f010000000000000000838161185757611856612ae5565b5b0492506040810190505b6d04ee2d6d415b85acef8100000000831061189e576d04ee2d6d415b85acef8100000000838161189457611893612ae5565b5b0492506020810190505b662386f26fc1000083106118cd57662386f26fc1000083816118c3576118c2612ae5565b5b0492506010810190505b6305f5e10083106118f6576305f5e10083816118ec576118eb612ae5565b5b0492506008810190505b612710831061191b57612710838161191157611910612ae5565b5b0492506004810190505b6064831061193e576064838161193457611933612ae5565b5b0492506002810190505b600a831061194d576001810190505b80915050919050565b6000604051905090565b600080fd5b600080fd5b60007fffffffff0000000000000000000000000000000000000000000000000000000082169050919050565b61199f8161196a565b81146119aa57600080fd5b50565b6000813590506119bc81611996565b92915050565b6000602082840312156119d8576119d7611960565b5b60006119e6848285016119ad565b91505092915050565b60008115159050919050565b611a04816119ef565b82525050565b6000602082019050611a1f60008301846119fb565b92915050565b600081519050919050565b600082825260208201905092915050565b60005b83811015611a5f578082015181840152602081019050611a44565b60008484015250505050565b6000601f19601f8301169050919050565b6000611a8782611a25565b611a918185611a30565b9350611aa1818560208601611a41565b611aaa81611a6b565b840191505092915050565b60006020820190508181036000830152611acf8184611a7c565b905092915050565b6000819050919050565b611aea81611ad7565b8114611af557600080fd5b50565b600081359050611b0781611ae1565b92915050565b600060208284031215611b2357611b22611960565b5b6000611b3184828501611af8565b91505092915050565b600073ffffffffffffffffffffffffffffffffffffffff82169050919050565b6000611b6582611b3a565b9050919050565b611b7581611b5a565b82525050565b6000602082019050611b906000830184611b6c565b92915050565b611b9f81611b5a565b8114611baa57600080fd5b50565b600081359050611bbc81611b96565b92915050565b60008060408385031215611bd957611bd8611960565b5b6000611be785828601611bad565b9250506020611bf885828601611af8565b9150509250929050565b600080fd5b600080fd5b7f4e487b7100000000000000000000000000000000000000000000000000000000600052604160045260246000fd5b611c4482611a6b565b810181811067ffffffffffffffff82111715611c6357611c62611c0c565b5b80604052505050565b6000611c76611956565b9050611c828282611c3b565b919050565b600067ffffffffffffffff821115611ca257611ca1611c0c565b5b611cab82611a6b565b9050602081019050919050565b82818337600083830152505050565b6000611cda611cd584611c87565b611c6c565b905082815260208101848484011115611cf657611cf5611c07565b5b611d01848285611cb8565b509392505050565b600082601f830112611d1e57611d1d611c02565b5b8135611d2e848260208601611cc7565b91505092915050565b60008060408385031215611d4e57611d4d611960565b5b6000611d5c85828601611bad565b925050602083013567ffffffffffffffff811115611d7d57611d7c611965565b5b611d8985828601611d09565b9150509250929050565b600080600060608486031215611dac57611dab611960565b5b6000611dba86828701611bad565b9350506020611dcb86828701611bad565b9250506040611ddc86828701611af8565b9150509250925092565b600060208284031215611dfc57611dfb611960565b5b6000611e0a84828501611bad565b91505092915050565b611e1c81611ad7565b82525050565b6000602082019050611e376000830184611e13565b92915050565b611e46816119ef565b8114611e5157600080fd5b50565b600081359050611e6381611e3d565b92915050565b60008060408385031215611e8057611e7f611960565b5b6000611e8e85828601611bad565b9250506020611e9f85828601611e54565b9150509250929050565b600067ffffffffffffffff821115611ec457611ec3611c0c565b5b611ecd82611a6b565b9050602081019050919050565b6000611eed611ee884611ea9565b611c6c565b905082815260208101848484011115611f0957611f08611c07565b5b611f14848285611cb8565b509392505050565b600082601f830112611f3157611f30611c02565b5b8135611f41848260208601611eda565b91505092915050565b60008060008060808587031215611f6457611f63611960565b5b6000611f7287828801611bad565b9450506020611f8387828801611bad565b9350506040611f9487828801611af8565b925050606085013567ffffffffffffffff811115611fb557611fb4611965565b5b611fc187828801611f1c565b91505092959194509250565b60008060408385031215611fe457611fe3611960565b5b6000611ff285828601611bad565b925050602061200385828601611bad565b9150509250929050565b7f4e487b7100000000000000000000000000000000000000000000000000000000600052602260045260246000fd5b6000600282049050600182168061205457607f821691505b6020821081036120675761206661200d565b5b50919050565b7f4552433732313a20617070726f76616c20746f2063757272656e74206f776e6560008201527f7200000000000000000000000000000000000000000000000000000000000000602082015250565b60006120c9602183611a30565b91506120d48261206d565b604082019050919050565b600060208201905081810360008301526120f8816120bc565b9050919050565b7f4552433732313a20617070726f76652063616c6c6572206973206e6f7420746f60008201527f6b656e206f776e6572206f7220617070726f76656420666f7220616c6c000000602082015250565b600061215b603d83611a30565b9150612166826120ff565b604082019050919050565b6000602082019050818103600083015261218a8161214e565b9050919050565b7f4e487b7100000000000000000000000000000000000000000000000000000000600052601160045260246000fd5b60006121cb82611ad7565b91507fffffffffffffffffffffffffffffffffffffffffffffffffffffffffffffffff82036121fd576121fc612191565b5b600182019050919050565b7f4552433732313a2063616c6c6572206973206e6f7420746f6b656e206f776e6560008201527f72206f7220617070726f76656400000000000000000000000000000000000000602082015250565b6000612264602d83611a30565b915061226f82612208565b604082019050919050565b6000602082019050818103600083015261229381612257565b9050919050565b7f4552433732313a20696e76616c696420746f6b656e2049440000000000000000600082015250565b60006122d0601883611a30565b91506122db8261229a565b602082019050919050565b600060208201905081810360008301526122ff816122c3565b9050919050565b7f4552433732313a2061646472657373207a65726f206973206e6f74206120766160008201527f6c6964206f776e65720000000000000000000000000000000000000000000000602082015250565b6000612362602983611a30565b915061236d82612306565b604082019050919050565b6000602082019050818103600083015261239181612355565b9050919050565b600081905092915050565b60006123ae82611a25565b6123b88185612398565b93506123c8818560208601611a41565b80840191505092915050565b60006123e082856123a3565b91506123ec82846123a3565b91508190509392505050565b7f4552433732313a206d696e7420746f20746865207a65726f2061646472657373600082015250565b600061242e602083611a30565b9150612439826123f8565b602082019050919050565b6000602082019050818103600083015261245d81612421565b9050919050565b7f4552433732313a20746f6b656e20616c7265616479206d696e74656400000000600082015250565b600061249a601c83611a30565b91506124a582612464565b602082019050919050565b600060208201905081810360008301526124c98161248d565b9050919050565b7f45524337323155524953746f726167653a2055524920736574206f66206e6f6e60008201527f6578697374656e7420746f6b656e000000000000000000000000000000000000602082015250565b600061252c602e83611a30565b9150612537826124d0565b604082019050919050565b6000602082019050818103600083015261255b8161251f565b9050919050565b60008190508160005260206000209050919050565b60006020601f8301049050919050565b600082821b905092915050565b6000600883026125c47fffffffffffffffffffffffffffffffffffffffffffffffffffffffffffffffff82612587565b6125ce8683612587565b95508019841693508086168417925050509392505050565b6000819050919050565b600061260b61260661260184611ad7565b6125e6565b611ad7565b9050919050565b6000819050919050565b612625836125f0565b61263961263182612612565b848454612594565b825550505050565b600090565b61264e612641565b61265981848461261c565b505050565b5b8181101561267d57612672600082612646565b60018101905061265f565b5050565b601f8211156126c25761269381612562565b61269c84612577565b810160208510156126ab578190505b6126bf6126b785612577565b83018261265e565b50505b505050565b600082821c905092915050565b60006126e5600019846008026126c7565b1980831691505092915050565b60006126fe83836126d4565b9150826002028217905092915050565b61271782611a25565b67ffffffffffffffff8111156127305761272f611c0c565b5b61273a825461203c565b612745828285612681565b600060209050601f8311600181146127785760008415612766578287015190505b61277085826126f2565b8655506127d8565b601f19841661278686612562565b60005b828110156127ae57848901518255600182019150602085019450602081019050612789565b868310156127cb57848901516127c7601f8916826126d4565b8355505b6001600288020188555050505b505050505050565b7f4552433732313a207472616e736665722066726f6d20696e636f72726563742060008201527f6f776e6572000000000000000000000000000000000000000000000000000000602082015250565b600061283c602583611a30565b9150612847826127e0565b604082019050919050565b6000602082019050818103600083015261286b8161282f565b9050919050565b7f4552433732313a207472616e7366657220746f20746865207a65726f2061646460008201527f7265737300000000000000000000000000000000000000000000000000000000602082015250565b60006128ce602483611a30565b91506128d982612872565b604082019050919050565b600060208201905081810360008301526128fd816128c1565b9050919050565b7f4552433732313a20617070726f766520746f2063616c6c657200000000000000600082015250565b600061293a601983611a30565b915061294582612904565b602082019050919050565b600060208201905081810360008301526129698161292d565b9050919050565b7f4552433732313a207472616e7366657220746f206e6f6e20455243373231526560008201527f63656976657220696d706c656d656e7465720000000000000000000000000000602082015250565b60006129cc603283611a30565b91506129d782612970565b604082019050919050565b600060208201905081810360008301526129fb816129bf565b9050919050565b600081519050919050565b600082825260208201905092915050565b6000612a2982612a02565b612a338185612a0d565b9350612a43818560208601611a41565b612a4c81611a6b565b840191505092915050565b6000608082019050612a6c6000830187611b6c565b612a796020830186611b6c565b612a866040830185611e13565b8181036060830152612a988184612a1e565b905095945050505050565b600081519050612ab281611996565b92915050565b600060208284031215612ace57612acd611960565b5b6000612adc84828501612aa3565b91505092915050565b7f4e487b7100000000000000000000000000000000000000000000000000000000600052601260045260246000fdfea2646970667358221220d6e62c71db844927733907e3f4de2cc4eed3886a2627fdf6f471da53dbc9c86a64736f6c63430008110033",
  "linkReferences": {},
  "deployedLinkReferences": {}
}