{
  "_format": "hh-sol-artifact-1",
  "contractName": "zkNFT",
  "sourceName": "contracts/zkNFT.sol",
  "abi": [
    {
      "inputs": [],
      "stateMutability": "nonpayable",
      "type": "constructor"
    },
    {
      "inputs": [],
      "name": "InvalidOperatorAddress",
      "type": "error"
    },
    {
      "inputs": [],
      "name": "NotOwner",
      "type": "error"
    },
    {
      "anonymous": false,
      "inputs": [
        {
          "indexed": true,
          "internalType": "uint256",
          "name": "tokenID",
          "type": "uint256"
        }
      ],
      "name": "MetadataUpdate",
      "type": "event"
    },
    {
      "anonymous": false,
      "inputs": [
        {
          "indexed": true,
          "internalType": "uint256",
          "name": "from",
          "type": "uint256"
        },
        {
          "indexed": true,
          "internalType": "uint256",
          "name": "to",
          "type": "uint256"
        },
        {
          "indexed": true,
          "internalType": "uint256",
          "name": "tokenID",
          "type": "uint256"
        }
      ],
      "name": "NFTTransfered",
      "type": "event"
    },
    {
      "inputs": [
        {
          "internalType": "uint256",
          "name": "_tokenID",
          "type": "uint256"
        },
        {
          "internalType": "address",
          "name": "op",
          "type": "address"
        },
        {
          "internalType": "address",
          "name": "add",
          "type": "address"
        }
      ],
      "name": "approve",
      "outputs": [],
      "stateMutability": "nonpayable",
      "type": "function"
    },
    {
      "inputs": [
        {
          "internalType": "uint256",
          "name": "commitment",
          "type": "uint256"
        },
        {
          "internalType": "string",
          "name": "tokenURI",
          "type": "string"
        }
      ],
      "name": "createNFT",
      "outputs": [
        {
          "internalType": "uint256",
          "name": "",
          "type": "uint256"
        }
      ],
      "stateMutability": "nonpayable",
      "type": "function"
    },
    {
      "inputs": [
        {
          "internalType": "uint256",
          "name": "_tokenID",
          "type": "uint256"
        },
        {
          "internalType": "uint256",
          "name": "_commitment",
          "type": "uint256"
        },
        {
          "internalType": "address",
          "name": "user",
          "type": "address"
        }
      ],
      "name": "deleteZkNft",
      "outputs": [],
      "stateMutability": "nonpayable",
      "type": "function"
    },
    {
      "inputs": [
        {
          "internalType": "uint256",
          "name": "_tokenID",
          "type": "uint256"
        }
      ],
      "name": "getApprovedAdd",
      "outputs": [
        {
          "internalType": "address",
          "name": "",
          "type": "address"
        }
      ],
      "stateMutability": "view",
      "type": "function"
    },
    {
      "inputs": [],
      "name": "getNumberOfTokens",
      "outputs": [
        {
          "internalType": "uint256",
          "name": "",
          "type": "uint256"
        }
      ],
      "stateMutability": "view",
      "type": "function"
    },
    {
      "inputs": [
        {
          "internalType": "uint256",
          "name": "_tokenID",
          "type": "uint256"
        }
      ],
      "name": "getTokenURI",
      "outputs": [
        {
          "internalType": "string",
          "name": "",
          "type": "string"
        }
      ],
      "stateMutability": "view",
      "type": "function"
    },
    {
      "inputs": [],
      "name": "name",
      "outputs": [
        {
          "internalType": "string",
          "name": "",
          "type": "string"
        }
      ],
      "stateMutability": "view",
      "type": "function"
    },
    {
      "inputs": [
        {
          "internalType": "uint256",
          "name": "_tokenID",
          "type": "uint256"
        }
      ],
      "name": "ownerOf",
      "outputs": [
        {
          "internalType": "uint256",
          "name": "",
          "type": "uint256"
        }
      ],
      "stateMutability": "view",
      "type": "function"
    },
    {
      "inputs": [],
      "name": "symbol",
      "outputs": [
        {
          "internalType": "string",
          "name": "",
          "type": "string"
        }
      ],
      "stateMutability": "view",
      "type": "function"
    },
    {
      "inputs": [
        {
          "internalType": "uint256",
          "name": "ownerCom",
          "type": "uint256"
        },
        {
          "internalType": "uint256",
          "name": "buyerCom",
          "type": "uint256"
        },
        {
          "internalType": "address",
          "name": "buyer",
          "type": "address"
        },
        {
          "internalType": "uint256",
          "name": "_tokenID",
          "type": "uint256"
        }
      ],
      "name": "transferFrom",
      "outputs": [],
      "stateMutability": "nonpayable",
      "type": "function"
    },
    {
      "inputs": [
        {
          "internalType": "uint256",
          "name": "_tokenID",
          "type": "uint256"
        },
        {
          "internalType": "uint256",
          "name": "commitment",
          "type": "uint256"
        },
        {
          "internalType": "address",
          "name": "buyer",
          "type": "address"
        }
      ],
      "name": "transferNFT",
      "outputs": [],
      "stateMutability": "nonpayable",
      "type": "function"
    }
  ],
  "bytecode": "0x60806040526040518060400160405280600481526020017f7a6b4d5000000000000000000000000000000000000000000000000000000000815250600690816200004a919062000328565b506040518060400160405280600181526020017f5a000000000000000000000000000000000000000000000000000000000000008152506007908162000091919062000328565b503480156200009f57600080fd5b5060006008819055506200040f565b600081519050919050565b7f4e487b7100000000000000000000000000000000000000000000000000000000600052604160045260246000fd5b7f4e487b7100000000000000000000000000000000000000000000000000000000600052602260045260246000fd5b600060028204905060018216806200013057607f821691505b602082108103620001465762000145620000e8565b5b50919050565b60008190508160005260206000209050919050565b60006020601f8301049050919050565b600082821b905092915050565b600060088302620001b07fffffffffffffffffffffffffffffffffffffffffffffffffffffffffffffffff8262000171565b620001bc868362000171565b95508019841693508086168417925050509392505050565b6000819050919050565b6000819050919050565b60006200020962000203620001fd84620001d4565b620001de565b620001d4565b9050919050565b6000819050919050565b6200022583620001e8565b6200023d620002348262000210565b8484546200017e565b825550505050565b600090565b6200025462000245565b620002618184846200021a565b505050565b5b8181101562000289576200027d6000826200024a565b60018101905062000267565b5050565b601f821115620002d857620002a2816200014c565b620002ad8462000161565b81016020851015620002bd578190505b620002d5620002cc8562000161565b83018262000266565b50505b505050565b600082821c905092915050565b6000620002fd60001984600802620002dd565b1980831691505092915050565b6000620003188383620002ea565b9150826002028217905092915050565b6200033382620000ae565b67ffffffffffffffff8111156200034f576200034e620000b9565b5b6200035b825462000117565b620003688282856200028d565b600060209050601f831160018114620003a057600084156200038b578287015190505b6200039785826200030a565b86555062000407565b601f198416620003b0866200014c565b60005b82811015620003da57848901518255600182019150602085019450602081019050620003b3565b86831015620003fa5784890151620003f6601f891682620002ea565b8355505b6001600288020188555050505b505050505050565b6115be806200041f6000396000f3fe608060405234801561001057600080fd5b50600436106100a95760003560e01c80638894c446116100715780638894c4461461016457806395d89b4114610180578063a50348dc1461019e578063d7809252146101ba578063efeecb51146101ea578063f32b512414610208576100a9565b806306fdde03146100ae5780631c4b2bb9146100cc5780632fac5d9f146100e85780633bb3a24d146101045780636352211e14610134575b600080fd5b6100b6610238565b6040516100c39190610cce565b60405180910390f35b6100e660048036038101906100e19190610d98565b6102ca565b005b61010260048036038101906100fd9190610deb565b610462565b005b61011e60048036038101906101199190610e3e565b610570565b60405161012b9190610cce565b60405180910390f35b61014e60048036038101906101499190610e3e565b610615565b60405161015b9190610e7a565b60405180910390f35b61017e60048036038101906101799190610d98565b610632565b005b6101886107bd565b6040516101959190610cce565b60405180910390f35b6101b860048036038101906101b39190610e95565b61084f565b005b6101d460048036038101906101cf9190610e3e565b61096c565b6040516101e19190610f0b565b60405180910390f35b6101f26109a9565b6040516101ff9190610e7a565b60405180910390f35b610222600480360381019061021d919061105b565b6109b3565b60405161022f9190610e7a565b60405180910390f35b606060068054610247906110e6565b80601f0160208091040260200160405190810160405280929190818152602001828054610273906110e6565b80156102c05780601f10610295576101008083540402835291602001916102c0565b820191906000526020600020905b8154815290600101906020018083116102a357829003601f168201915b5050505050905090565b8073ffffffffffffffffffffffffffffffffffffffff166001600084815260200190815260200160002060009054906101000a900473ffffffffffffffffffffffffffffffffffffffff1673ffffffffffffffffffffffffffffffffffffffff1614610362576040517f30cd747100000000000000000000000000000000000000000000000000000000815260040160405180910390fd5b6001600083815260200190815260200160002060006101000a81549073ffffffffffffffffffffffffffffffffffffffff021916905560036000848152602001908152602001600020600090556001600260008373ffffffffffffffffffffffffffffffffffffffff1673ffffffffffffffffffffffffffffffffffffffff168152602001908152602001600020546103fb9190611146565b600260008373ffffffffffffffffffffffffffffffffffffffff1673ffffffffffffffffffffffffffffffffffffffff1681526020019081526020016000208190555060046000848152602001908152602001600020600061045d9190610be1565b505050565b60006003600085815260200190815260200160002054905060006001600083815260200190815260200160002060009054906101000a900473ffffffffffffffffffffffffffffffffffffffff1690508073ffffffffffffffffffffffffffffffffffffffff168473ffffffffffffffffffffffffffffffffffffffff1614610517576040517feb32d3bf00000000000000000000000000000000000000000000000000000000815260040160405180910390fd5b826005600087815260200190815260200160002060006101000a81548173ffffffffffffffffffffffffffffffffffffffff021916908373ffffffffffffffffffffffffffffffffffffffff1602179055505050505050565b6060600460008381526020019081526020016000208054610590906110e6565b80601f01602080910402602001604051908101604052809291908181526020018280546105bc906110e6565b80156106095780601f106105de57610100808354040283529160200191610609565b820191906000526020600020905b8154815290600101906020018083116105ec57829003601f168201915b50505050509050919050565b600060036000838152602001908152602001600020549050919050565b60006003600085815260200190815260200160002054905060006001600083815260200190815260200160002060009054906101000a900473ffffffffffffffffffffffffffffffffffffffff169050600360008681526020019081526020016000206000905560006001600260008473ffffffffffffffffffffffffffffffffffffffff1673ffffffffffffffffffffffffffffffffffffffff168152602001908152602001600020546106e79190611146565b90506000808373ffffffffffffffffffffffffffffffffffffffff1673ffffffffffffffffffffffffffffffffffffffff1681526020019081526020016000206000828152602001908152602001600020600090556001600260008473ffffffffffffffffffffffffffffffffffffffff1673ffffffffffffffffffffffffffffffffffffffff168152602001908152602001600020600082825461078c9190611146565b9250508190555061079d84866109ed565b846003600088815260200190815260200160002081905550505050505050565b6060600780546107cc906110e6565b80601f01602080910402602001604051908101604052809291908181526020018280546107f8906110e6565b80156108455780601f1061081a57610100808354040283529160200191610845565b820191906000526020600020905b81548152906001019060200180831161082857829003601f168201915b5050505050905090565b3373ffffffffffffffffffffffffffffffffffffffff1661086f8261096c565b73ffffffffffffffffffffffffffffffffffffffff16146108c5576040517f08c379a00000000000000000000000000000000000000000000000000000000081526004016108bc906111c6565b60405180910390fd5b836040516020016108d69190611207565b604051602081830303815290604052805190602001206108f582610615565b6040516020016109059190611207565b604051602081830303815290604052805190602001201461095b576040517f08c379a00000000000000000000000000000000000000000000000000000000081526004016109529061126e565b60405180910390fd5b610966818484610632565b50505050565b60006005600083815260200190815260200160002060009054906101000a900473ffffffffffffffffffffffffffffffffffffffff169050919050565b6000600854905090565b6000803390506109c381856109ed565b6109cd8484610b33565b600860008154809291906109e09061128e565b9190505591505092915050565b816001600083815260200190815260200160002060006101000a81548173ffffffffffffffffffffffffffffffffffffffff021916908373ffffffffffffffffffffffffffffffffffffffff1602179055506000600260008473ffffffffffffffffffffffffffffffffffffffff1673ffffffffffffffffffffffffffffffffffffffff168152602001908152602001600020549050816000808573ffffffffffffffffffffffffffffffffffffffff1673ffffffffffffffffffffffffffffffffffffffff1681526020019081526020016000206000838152602001908152602001600020819055506001600260008573ffffffffffffffffffffffffffffffffffffffff1673ffffffffffffffffffffffffffffffffffffffff1681526020019081526020016000206000828254610b2791906112d6565b92505081905550505050565b8160036000600854815260200190815260200160002081905550610b5960085482610b8f565b6008548260007fb12d87e4ee7f2fb6d2b85a4b7875bc64a51a45e85c452f968ce17e9ef133b93860405160405180910390a45050565b80600460008481526020019081526020016000209081610baf91906114b6565b50817ff8e1a15aba9398e019f0b49df1a4fde98ee17ae345cb5f6b5e2c27f5033e8ce760405160405180910390a25050565b508054610bed906110e6565b6000825580601f10610bff5750610c1e565b601f016020900490600052602060002090810190610c1d9190610c21565b5b50565b5b80821115610c3a576000816000905550600101610c22565b5090565b600081519050919050565b600082825260208201905092915050565b60005b83811015610c78578082015181840152602081019050610c5d565b60008484015250505050565b6000601f19601f8301169050919050565b6000610ca082610c3e565b610caa8185610c49565b9350610cba818560208601610c5a565b610cc381610c84565b840191505092915050565b60006020820190508181036000830152610ce88184610c95565b905092915050565b6000604051905090565b600080fd5b600080fd5b6000819050919050565b610d1781610d04565b8114610d2257600080fd5b50565b600081359050610d3481610d0e565b92915050565b600073ffffffffffffffffffffffffffffffffffffffff82169050919050565b6000610d6582610d3a565b9050919050565b610d7581610d5a565b8114610d8057600080fd5b50565b600081359050610d9281610d6c565b92915050565b600080600060608486031215610db157610db0610cfa565b5b6000610dbf86828701610d25565b9350506020610dd086828701610d25565b9250506040610de186828701610d83565b9150509250925092565b600080600060608486031215610e0457610e03610cfa565b5b6000610e1286828701610d25565b9350506020610e2386828701610d83565b9250506040610e3486828701610d83565b9150509250925092565b600060208284031215610e5457610e53610cfa565b5b6000610e6284828501610d25565b91505092915050565b610e7481610d04565b82525050565b6000602082019050610e8f6000830184610e6b565b92915050565b60008060008060808587031215610eaf57610eae610cfa565b5b6000610ebd87828801610d25565b9450506020610ece87828801610d25565b9350506040610edf87828801610d83565b9250506060610ef087828801610d25565b91505092959194509250565b610f0581610d5a565b82525050565b6000602082019050610f206000830184610efc565b92915050565b600080fd5b600080fd5b7f4e487b7100000000000000000000000000000000000000000000000000000000600052604160045260246000fd5b610f6882610c84565b810181811067ffffffffffffffff82111715610f8757610f86610f30565b5b80604052505050565b6000610f9a610cf0565b9050610fa68282610f5f565b919050565b600067ffffffffffffffff821115610fc657610fc5610f30565b5b610fcf82610c84565b9050602081019050919050565b82818337600083830152505050565b6000610ffe610ff984610fab565b610f90565b90508281526020810184848401111561101a57611019610f2b565b5b611025848285610fdc565b509392505050565b600082601f83011261104257611041610f26565b5b8135611052848260208601610feb565b91505092915050565b6000806040838503121561107257611071610cfa565b5b600061108085828601610d25565b925050602083013567ffffffffffffffff8111156110a1576110a0610cff565b5b6110ad8582860161102d565b9150509250929050565b7f4e487b7100000000000000000000000000000000000000000000000000000000600052602260045260246000fd5b600060028204905060018216806110fe57607f821691505b602082108103611111576111106110b7565b5b50919050565b7f4e487b7100000000000000000000000000000000000000000000000000000000600052601160045260246000fd5b600061115182610d04565b915061115c83610d04565b925082820390508181111561117457611173611117565b5b92915050565b7f4e6f20617070726f76656420746f206d616b6520746869732063616c6c000000600082015250565b60006111b0601d83610c49565b91506111bb8261117a565b602082019050919050565b600060208201905081810360008301526111df816111a3565b9050919050565b6000819050919050565b6112016111fc82610d04565b6111e6565b82525050565b600061121382846111f0565b60208201915081905092915050565b7f496e76616c696420636f6d696669657220686173680000000000000000000000600082015250565b6000611258601583610c49565b915061126382611222565b602082019050919050565b600060208201905081810360008301526112878161124b565b9050919050565b600061129982610d04565b91507fffffffffffffffffffffffffffffffffffffffffffffffffffffffffffffffff82036112cb576112ca611117565b5b600182019050919050565b60006112e182610d04565b91506112ec83610d04565b925082820190508082111561130457611303611117565b5b92915050565b60008190508160005260206000209050919050565b60006020601f8301049050919050565b600082821b905092915050565b60006008830261136c7fffffffffffffffffffffffffffffffffffffffffffffffffffffffffffffffff8261132f565b611376868361132f565b95508019841693508086168417925050509392505050565b6000819050919050565b60006113b36113ae6113a984610d04565b61138e565b610d04565b9050919050565b6000819050919050565b6113cd83611398565b6113e16113d9826113ba565b84845461133c565b825550505050565b600090565b6113f66113e9565b6114018184846113c4565b505050565b5b818110156114255761141a6000826113ee565b600181019050611407565b5050565b601f82111561146a5761143b8161130a565b6114448461131f565b81016020851015611453578190505b61146761145f8561131f565b830182611406565b50505b505050565b600082821c905092915050565b600061148d6000198460080261146f565b1980831691505092915050565b60006114a6838361147c565b9150826002028217905092915050565b6114bf82610c3e565b67ffffffffffffffff8111156114d8576114d7610f30565b5b6114e282546110e6565b6114ed828285611429565b600060209050601f831160018114611520576000841561150e578287015190505b611518858261149a565b865550611580565b601f19841661152e8661130a565b60005b8281101561155657848901518255600182019150602085019450602081019050611531565b86831015611573578489015161156f601f89168261147c565b8355505b6001600288020188555050505b50505050505056fea2646970667358221220313dd8653789a1ad94c05f7970de97ee55ae5d13d5a6450878782d529f4b832864736f6c63430008110033",
  "linkReferences": {},
  "deployedLinkReferences": {}
}