{
  "address": "0xb33238A117bEe6423fD0F293e9593df166431877",
  "abi": [
    {
      "inputs": [],
      "stateMutability": "nonpayable",
      "type": "constructor"
    },
    {
      "anonymous": false,
      "inputs": [
        {
          "indexed": true,
          "internalType": "uint256",
          "name": "tokenID",
          "type": "uint256"
        }
      ],
      "name": "MetadataUpdate",
      "type": "event"
    },
    {
      "anonymous": false,
      "inputs": [
        {
          "indexed": true,
          "internalType": "string",
          "name": "from",
          "type": "string"
        },
        {
          "indexed": true,
          "internalType": "string",
          "name": "to",
          "type": "string"
        },
        {
          "indexed": true,
          "internalType": "uint256",
          "name": "tokenID",
          "type": "uint256"
        }
      ],
      "name": "NFTTransfered",
      "type": "event"
    },
    {
      "inputs": [
        {
          "internalType": "uint256",
          "name": "_tokenID",
          "type": "uint256"
        },
        {
          "internalType": "address",
          "name": "op",
          "type": "address"
        }
      ],
      "name": "approve",
      "outputs": [],
      "stateMutability": "nonpayable",
      "type": "function"
    },
    {
      "inputs": [
        {
          "internalType": "string",
          "name": "nullifierHash",
          "type": "string"
        },
        {
          "internalType": "string",
          "name": "tokenURI",
          "type": "string"
        }
      ],
      "name": "createNFT",
      "outputs": [],
      "stateMutability": "nonpayable",
      "type": "function"
    },
    {
      "inputs": [
        {
          "internalType": "uint256",
          "name": "_tokenID",
          "type": "uint256"
        }
      ],
      "name": "getApprovedAdd",
      "outputs": [
        {
          "internalType": "address",
          "name": "",
          "type": "address"
        }
      ],
      "stateMutability": "view",
      "type": "function"
    },
    {
      "inputs": [],
      "name": "getNumberOfTokens",
      "outputs": [
        {
          "internalType": "uint256",
          "name": "",
          "type": "uint256"
        }
      ],
      "stateMutability": "view",
      "type": "function"
    },
    {
      "inputs": [],
      "name": "name",
      "outputs": [
        {
          "internalType": "string",
          "name": "",
          "type": "string"
        }
      ],
      "stateMutability": "view",
      "type": "function"
    },
    {
      "inputs": [
        {
          "internalType": "uint256",
          "name": "_tokenID",
          "type": "uint256"
        }
      ],
      "name": "ownerOf",
      "outputs": [
        {
          "internalType": "string",
          "name": "",
          "type": "string"
        }
      ],
      "stateMutability": "view",
      "type": "function"
    },
    {
      "inputs": [],
      "name": "symbol",
      "outputs": [
        {
          "internalType": "string",
          "name": "",
          "type": "string"
        }
      ],
      "stateMutability": "view",
      "type": "function"
    },
    {
      "inputs": [
        {
          "internalType": "string",
          "name": "ownerNul",
          "type": "string"
        },
        {
          "internalType": "string",
          "name": "buyerNul",
          "type": "string"
        },
        {
          "internalType": "address",
          "name": "buyer",
          "type": "address"
        },
        {
          "internalType": "uint256",
          "name": "_tokenID",
          "type": "uint256"
        }
      ],
      "name": "transferFrom",
      "outputs": [],
      "stateMutability": "nonpayable",
      "type": "function"
    },
    {
      "inputs": [
        {
          "internalType": "uint256",
          "name": "_tokenID",
          "type": "uint256"
        },
        {
          "internalType": "string",
          "name": "nullifierHash",
          "type": "string"
        },
        {
          "internalType": "address",
          "name": "buyer",
          "type": "address"
        }
      ],
      "name": "transferNFT",
      "outputs": [],
      "stateMutability": "nonpayable",
      "type": "function"
    }
  ],
  "transactionHash": "0x4c35fba3dfc6da00aa6b240267fc9858b8068f6ddd93c0cca3abdde75853cfa7",
  "args": [],
  "numDeployments": 1,
  "solcInputHash": "93a641e257a5d6749b998c3966f7c664",
  "bytecode": "0x60806040526040518060400160405280600481526020017f7a6b4d50000000000000000000000000000000000000000000000000000000008152506006908051906020019062000051929190620000bc565b506040518060400160405280600181526020017f5a00000000000000000000000000000000000000000000000000000000000000815250600790805190602001906200009f929190620000bc565b50348015620000ad57600080fd5b506000600881905550620001d1565b828054620000ca906200016c565b90600052602060002090601f016020900481019282620000ee57600085556200013a565b82601f106200010957805160ff19168380011785556200013a565b828001600101855582156200013a579182015b82811115620001395782518255916020019190600101906200011c565b5b5090506200014991906200014d565b5090565b5b80821115620001685760008160009055506001016200014e565b5090565b600060028204905060018216806200018557607f821691505b602082108114156200019c576200019b620001a2565b5b50919050565b7f4e487b7100000000000000000000000000000000000000000000000000000000600052602260045260246000fd5b61148780620001e16000396000f3fe608060405234801561001057600080fd5b50600436106100935760003560e01c806368613d171161006657806368613d171461011e57806395d89b411461013a578063d780925214610158578063efeecb5114610188578063febe4909146101a657610093565b806306fdde03146100985780630b358e34146100b657806311eb6a6b146100d25780636352211e146100ee575b600080fd5b6100a06101c2565b6040516100ad9190611025565b60405180910390f35b6100d060048036038101906100cb9190610d4f565b610254565b005b6100ec60048036038101906100e79190610e5b565b610371565b005b61010860048036038101906101039190610dee565b6105af565b6040516101159190611025565b60405180910390f35b61013860048036038101906101339190610cd7565b610654565b005b61014261068a565b60405161014f9190611025565b60405180910390f35b610172600480360381019061016d9190610dee565b61071c565b60405161017f919061100a565b60405180910390f35b610190610759565b60405161019d91906110a7565b60405180910390f35b6101c060048036038101906101bb9190610e1b565b610763565b005b6060600680546101d190611247565b80601f01602080910402602001604051908101604052809291908181526020018280546101fd90611247565b801561024a5780601f1061021f5761010080835404028352916020019161024a565b820191906000526020600020905b81548152906001019060200180831161022d57829003601f168201915b5050505050905090565b3373ffffffffffffffffffffffffffffffffffffffff166102748261071c565b73ffffffffffffffffffffffffffffffffffffffff16146102ca576040517f08c379a00000000000000000000000000000000000000000000000000000000081526004016102c190611087565b60405180910390fd5b836040516020016102db9190610fde565b604051602081830303815290604052805190602001206102fa826105af565b60405160200161030a9190610fde565b6040516020818303038152906040528051906020012014610360576040517f08c379a000000000000000000000000000000000000000000000000000000000815260040161035790611047565b60405180910390fd5b61036b818484610371565b50505050565b600060036000858152602001908152602001600020805461039190611247565b80601f01602080910402602001604051908101604052809291908181526020018280546103bd90611247565b801561040a5780601f106103df5761010080835404028352916020019161040a565b820191906000526020600020905b8154815290600101906020018083116103ed57829003601f168201915b5050505050905060006001826040516104239190610fde565b908152602001604051809103902060009054906101000a900473ffffffffffffffffffffffffffffffffffffffff1690506003600086815260200190815260200160002060006104739190610b5a565b60006001600260008473ffffffffffffffffffffffffffffffffffffffff1673ffffffffffffffffffffffffffffffffffffffff168152602001908152602001600020546104c19190611195565b90506000808373ffffffffffffffffffffffffffffffffffffffff1673ffffffffffffffffffffffffffffffffffffffff1681526020019081526020016000206000828152602001908152602001600020600061051e9190610b5a565b6001600260008473ffffffffffffffffffffffffffffffffffffffff1673ffffffffffffffffffffffffffffffffffffffff168152602001908152602001600020600082825461056e9190611195565b9250508190555061057f848661090d565b846003600088815260200190815260200160002090805190602001906105a6929190610b9a565b50505050505050565b60606003600083815260200190815260200160002080546105cf90611247565b80601f01602080910402602001604051908101604052809291908181526020018280546105fb90611247565b80156106485780601f1061061d57610100808354040283529160200191610648565b820191906000526020600020905b81548152906001019060200180831161062b57829003601f168201915b50505050509050919050565b6000339050610663818461090d565b61066d8383610a6e565b60086000815480929190610680906112aa565b9190505550505050565b60606007805461069990611247565b80601f01602080910402602001604051908101604052809291908181526020018280546106c590611247565b80156107125780601f106106e757610100808354040283529160200191610712565b820191906000526020600020905b8154815290600101906020018083116106f557829003601f168201915b5050505050905090565b60006005600083815260200190815260200160002060009054906101000a900473ffffffffffffffffffffffffffffffffffffffff169050919050565b6000600854905090565b600060036000848152602001908152602001600020805461078390611247565b80601f01602080910402602001604051908101604052809291908181526020018280546107af90611247565b80156107fc5780601f106107d1576101008083540402835291602001916107fc565b820191906000526020600020905b8154815290600101906020018083116107df57829003601f168201915b5050505050905060006001826040516108159190610fde565b908152602001604051809103902060009054906101000a900473ffffffffffffffffffffffffffffffffffffffff1690508073ffffffffffffffffffffffffffffffffffffffff168373ffffffffffffffffffffffffffffffffffffffff1614156108b5576040517f08c379a00000000000000000000000000000000000000000000000000000000081526004016108ac90611067565b60405180910390fd5b826005600086815260200190815260200160002060006101000a81548173ffffffffffffffffffffffffffffffffffffffff021916908373ffffffffffffffffffffffffffffffffffffffff16021790555050505050565b8160018260405161091e9190610fde565b908152602001604051809103902060006101000a81548173ffffffffffffffffffffffffffffffffffffffff021916908373ffffffffffffffffffffffffffffffffffffffff1602179055506000600260008473ffffffffffffffffffffffffffffffffffffffff1673ffffffffffffffffffffffffffffffffffffffff168152602001908152602001600020549050816000808573ffffffffffffffffffffffffffffffffffffffff1673ffffffffffffffffffffffffffffffffffffffff16815260200190815260200160002060008381526020019081526020016000209080519060200190610a11929190610b9a565b506001600260008573ffffffffffffffffffffffffffffffffffffffff1673ffffffffffffffffffffffffffffffffffffffff1681526020019081526020016000206000828254610a62919061113f565b92505081905550505050565b816003600060085481526020019081526020016000209080519060200190610a97929190610b9a565b50610aa460085482610b01565b60085482604051610ab59190610fde565b6040518091039020604051610ac990610ff5565b60405180910390207f7a816b78af4ce88b796818c9b34dbb0fd31dab7c203f66de6cddfc22500cca6460405160405180910390a45050565b80600460008481526020019081526020016000209080519060200190610b28929190610b9a565b50817ff8e1a15aba9398e019f0b49df1a4fde98ee17ae345cb5f6b5e2c27f5033e8ce760405160405180910390a25050565b508054610b6690611247565b6000825580601f10610b785750610b97565b601f016020900490600052602060002090810190610b969190610c20565b5b50565b828054610ba690611247565b90600052602060002090601f016020900481019282610bc85760008555610c0f565b82601f10610be157805160ff1916838001178555610c0f565b82800160010185558215610c0f579182015b82811115610c0e578251825591602001919060010190610bf3565b5b509050610c1c9190610c20565b5090565b5b80821115610c39576000816000905550600101610c21565b5090565b6000610c50610c4b846110e7565b6110c2565b905082815260208101848484011115610c6c57610c6b611385565b5b610c77848285611205565b509392505050565b600081359050610c8e81611423565b92915050565b600082601f830112610ca957610ca8611380565b5b8135610cb9848260208601610c3d565b91505092915050565b600081359050610cd18161143a565b92915050565b60008060408385031215610cee57610ced61138f565b5b600083013567ffffffffffffffff811115610d0c57610d0b61138a565b5b610d1885828601610c94565b925050602083013567ffffffffffffffff811115610d3957610d3861138a565b5b610d4585828601610c94565b9150509250929050565b60008060008060808587031215610d6957610d6861138f565b5b600085013567ffffffffffffffff811115610d8757610d8661138a565b5b610d9387828801610c94565b945050602085013567ffffffffffffffff811115610db457610db361138a565b5b610dc087828801610c94565b9350506040610dd187828801610c7f565b9250506060610de287828801610cc2565b91505092959194509250565b600060208284031215610e0457610e0361138f565b5b6000610e1284828501610cc2565b91505092915050565b60008060408385031215610e3257610e3161138f565b5b6000610e4085828601610cc2565b9250506020610e5185828601610c7f565b9150509250929050565b600080600060608486031215610e7457610e7361138f565b5b6000610e8286828701610cc2565b935050602084013567ffffffffffffffff811115610ea357610ea261138a565b5b610eaf86828701610c94565b9250506040610ec086828701610c7f565b9150509250925092565b610ed3816111c9565b82525050565b6000610ee482611118565b610eee8185611123565b9350610efe818560208601611214565b610f0781611394565b840191505092915050565b6000610f1d82611118565b610f278185611134565b9350610f37818560208601611214565b80840191505092915050565b6000610f50601683611123565b9150610f5b826113a5565b602082019050919050565b6000610f73601883611123565b9150610f7e826113ce565b602082019050919050565b6000610f96600083611134565b9150610fa1826113f7565b600082019050919050565b6000610fb9601d83611123565b9150610fc4826113fa565b602082019050919050565b610fd8816111fb565b82525050565b6000610fea8284610f12565b915081905092915050565b600061100082610f89565b9150819050919050565b600060208201905061101f6000830184610eca565b92915050565b6000602082019050818103600083015261103f8184610ed9565b905092915050565b6000602082019050818103600083015261106081610f43565b9050919050565b6000602082019050818103600083015261108081610f66565b9050919050565b600060208201905081810360008301526110a081610fac565b9050919050565b60006020820190506110bc6000830184610fcf565b92915050565b60006110cc6110dd565b90506110d88282611279565b919050565b6000604051905090565b600067ffffffffffffffff82111561110257611101611351565b5b61110b82611394565b9050602081019050919050565b600081519050919050565b600082825260208201905092915050565b600081905092915050565b600061114a826111fb565b9150611155836111fb565b9250827fffffffffffffffffffffffffffffffffffffffffffffffffffffffffffffffff0382111561118a576111896112f3565b5b828201905092915050565b60006111a0826111fb565b91506111ab836111fb565b9250828210156111be576111bd6112f3565b5b828203905092915050565b60006111d4826111db565b9050919050565b600073ffffffffffffffffffffffffffffffffffffffff82169050919050565b6000819050919050565b82818337600083830152505050565b60005b83811015611232578082015181840152602081019050611217565b83811115611241576000848401525b50505050565b6000600282049050600182168061125f57607f821691505b6020821081141561127357611272611322565b5b50919050565b61128282611394565b810181811067ffffffffffffffff821117156112a1576112a0611351565b5b80604052505050565b60006112b5826111fb565b91507fffffffffffffffffffffffffffffffffffffffffffffffffffffffffffffffff8214156112e8576112e76112f3565b5b600182019050919050565b7f4e487b7100000000000000000000000000000000000000000000000000000000600052601160045260246000fd5b7f4e487b7100000000000000000000000000000000000000000000000000000000600052602260045260246000fd5b7f4e487b7100000000000000000000000000000000000000000000000000000000600052604160045260246000fd5b600080fd5b600080fd5b600080fd5b600080fd5b6000601f19601f8301169050919050565b7f496e76616c6964206e756c6c6966696572206861736800000000000000000000600082015250565b7f496e76616c6964206f70657261746f7220616464726573730000000000000000600082015250565b50565b7f4e6f20617070726f76656420746f206d616b6520746869732063616c6c000000600082015250565b61142c816111c9565b811461143757600080fd5b50565b611443816111fb565b811461144e57600080fd5b5056fea2646970667358221220a852d7a8d0f3674b801f5d284ca3bf1f898ad02944343715e1ff52a29f87f29764736f6c63430008070033",
  "devdoc": {
    "kind": "dev",
    "methods": {},
    "version": 1
  },
  "userdoc": {
    "kind": "user",
    "methods": {},
    "version": 1
  },
  "storageLayout": {
    "storage": [
      {
        "astId": 131,
        "contract": "contracts/createNFT.sol:CreateNFT",
        "label": "addToNullHsh",
        "offset": 0,
        "slot": "0",
        "type": "t_mapping(t_address,t_mapping(t_uint256,t_string_storage))"
      },
      {
        "astId": 135,
        "contract": "contracts/createNFT.sol:CreateNFT",
        "label": "nullToAdd",
        "offset": 0,
        "slot": "1",
        "type": "t_mapping(t_string_memory_ptr,t_address)"
      },
      {
        "astId": 139,
        "contract": "contracts/createNFT.sol:CreateNFT",
        "label": "noOfNullHshs",
        "offset": 0,
        "slot": "2",
        "type": "t_mapping(t_address,t_uint256)"
      },
      {
        "astId": 143,
        "contract": "contracts/createNFT.sol:CreateNFT",
        "label": "owners",
        "offset": 0,
        "slot": "3",
        "type": "t_mapping(t_uint256,t_string_storage)"
      },
      {
        "astId": 147,
        "contract": "contracts/createNFT.sol:CreateNFT",
        "label": "tokenURIs",
        "offset": 0,
        "slot": "4",
        "type": "t_mapping(t_uint256,t_string_storage)"
      },
      {
        "astId": 151,
        "contract": "contracts/createNFT.sol:CreateNFT",
        "label": "tokenIDToAdd",
        "offset": 0,
        "slot": "5",
        "type": "t_mapping(t_uint256,t_address)"
      },
      {
        "astId": 154,
        "contract": "contracts/createNFT.sol:CreateNFT",
        "label": "_name",
        "offset": 0,
        "slot": "6",
        "type": "t_string_storage"
      },
      {
        "astId": 157,
        "contract": "contracts/createNFT.sol:CreateNFT",
        "label": "_symbol",
        "offset": 0,
        "slot": "7",
        "type": "t_string_storage"
      },
      {
        "astId": 159,
        "contract": "contracts/createNFT.sol:CreateNFT",
        "label": "tokenID",
        "offset": 0,
        "slot": "8",
        "type": "t_uint256"
      }
    ],
    "types": {
      "t_address": {
        "encoding": "inplace",
        "label": "address",
        "numberOfBytes": "20"
      },
      "t_mapping(t_address,t_mapping(t_uint256,t_string_storage))": {
        "encoding": "mapping",
        "key": "t_address",
        "label": "mapping(address => mapping(uint256 => string))",
        "numberOfBytes": "32",
        "value": "t_mapping(t_uint256,t_string_storage)"
      },
      "t_mapping(t_address,t_uint256)": {
        "encoding": "mapping",
        "key": "t_address",
        "label": "mapping(address => uint256)",
        "numberOfBytes": "32",
        "value": "t_uint256"
      },
      "t_mapping(t_string_memory_ptr,t_address)": {
        "encoding": "mapping",
        "key": "t_string_memory_ptr",
        "label": "mapping(string => address)",
        "numberOfBytes": "32",
        "value": "t_address"
      },
      "t_mapping(t_uint256,t_address)": {
        "encoding": "mapping",
        "key": "t_uint256",
        "label": "mapping(uint256 => address)",
        "numberOfBytes": "32",
        "value": "t_address"
      },
      "t_mapping(t_uint256,t_string_storage)": {
        "encoding": "mapping",
        "key": "t_uint256",
        "label": "mapping(uint256 => string)",
        "numberOfBytes": "32",
        "value": "t_string_storage"
      },
      "t_string_memory_ptr": {
        "encoding": "bytes",
        "label": "string",
        "numberOfBytes": "32"
      },
      "t_string_storage": {
        "encoding": "bytes",
        "label": "string",
        "numberOfBytes": "32"
      },
      "t_uint256": {
        "encoding": "inplace",
        "label": "uint256",
        "numberOfBytes": "32"
      }
    }
  }
}