{
  "address": "0x4d88155F6cb0573D3D46d844366AB385252afae3",
  "abi": [
    {
      "inputs": [
        {
          "internalType": "address",
          "name": "_hasher",
          "type": "address"
        },
        {
          "internalType": "address",
          "name": "_verifier",
          "type": "address"
        }
      ],
      "stateMutability": "nonpayable",
      "type": "constructor"
    },
    {
      "inputs": [
        {
          "internalType": "address",
          "name": "nftAddress",
          "type": "address"
        },
        {
          "internalType": "uint256",
          "name": "tokenId",
          "type": "uint256"
        }
      ],
      "name": "AlreadyListed",
      "type": "error"
    },
    {
      "inputs": [],
      "name": "CommitmentAlreadyUsed",
      "type": "error"
    },
    {
      "inputs": [],
      "name": "InsufficientBalance",
      "type": "error"
    },
    {
      "inputs": [],
      "name": "InvalidProof",
      "type": "error"
    },
    {
      "inputs": [
        {
          "internalType": "address",
          "name": "nftAddress",
          "type": "address"
        },
        {
          "internalType": "uint256",
          "name": "tokenId",
          "type": "uint256"
        }
      ],
      "name": "ItemNotForSale",
      "type": "error"
    },
    {
      "inputs": [],
      "name": "NoProceeds",
      "type": "error"
    },
    {
      "inputs": [],
      "name": "NotApprovedForMarketplace",
      "type": "error"
    },
    {
      "inputs": [],
      "name": "NotAuthority",
      "type": "error"
    },
    {
      "inputs": [
        {
          "internalType": "address",
          "name": "nftAddress",
          "type": "address"
        },
        {
          "internalType": "uint256",
          "name": "tokenId",
          "type": "uint256"
        }
      ],
      "name": "NotListed",
      "type": "error"
    },
    {
      "inputs": [],
      "name": "NotOwner",
      "type": "error"
    },
    {
      "inputs": [],
      "name": "NullifierAlreadyUsed",
      "type": "error"
    },
    {
      "inputs": [],
      "name": "PriceMustBeAboveZero",
      "type": "error"
    },
    {
      "inputs": [
        {
          "internalType": "address",
          "name": "nftAddress",
          "type": "address"
        },
        {
          "internalType": "uint256",
          "name": "tokenId",
          "type": "uint256"
        },
        {
          "internalType": "uint256",
          "name": "price",
          "type": "uint256"
        }
      ],
      "name": "PriceNotMet",
      "type": "error"
    },
    {
      "inputs": [],
      "name": "TransactionFailed",
      "type": "error"
    },
    {
      "anonymous": false,
      "inputs": [
        {
          "indexed": false,
          "internalType": "uint256",
          "name": "buyer",
          "type": "uint256"
        },
        {
          "indexed": true,
          "internalType": "address",
          "name": "nftAddress",
          "type": "address"
        },
        {
          "indexed": true,
          "internalType": "uint256",
          "name": "tokenId",
          "type": "uint256"
        },
        {
          "indexed": false,
          "internalType": "uint256",
          "name": "price",
          "type": "uint256"
        }
      ],
      "name": "ItemBought",
      "type": "event"
    },
    {
      "anonymous": false,
      "inputs": [
        {
          "indexed": false,
          "internalType": "uint256",
          "name": "seller",
          "type": "uint256"
        },
        {
          "indexed": true,
          "internalType": "address",
          "name": "nftAddress",
          "type": "address"
        },
        {
          "indexed": true,
          "internalType": "uint256",
          "name": "tokenId",
          "type": "uint256"
        }
      ],
      "name": "ItemCanceled",
      "type": "event"
    },
    {
      "anonymous": false,
      "inputs": [
        {
          "indexed": false,
          "internalType": "address",
          "name": "zkNftAddress",
          "type": "address"
        },
        {
          "indexed": true,
          "internalType": "uint256",
          "name": "tokenID",
          "type": "uint256"
        },
        {
          "indexed": false,
          "internalType": "address",
          "name": "ercNftAddress",
          "type": "address"
        }
      ],
      "name": "ItemConverted",
      "type": "event"
    },
    {
      "anonymous": false,
      "inputs": [
        {
          "indexed": false,
          "internalType": "uint256",
          "name": "seller",
          "type": "uint256"
        },
        {
          "indexed": true,
          "internalType": "address",
          "name": "nftAddress",
          "type": "address"
        },
        {
          "indexed": true,
          "internalType": "uint256",
          "name": "tokenId",
          "type": "uint256"
        },
        {
          "indexed": false,
          "internalType": "uint256",
          "name": "price",
          "type": "uint256"
        }
      ],
      "name": "ItemListed",
      "type": "event"
    },
    {
      "inputs": [
        {
          "internalType": "address",
          "name": "nftAddress",
          "type": "address"
        },
        {
          "internalType": "uint256",
          "name": "tokenId",
          "type": "uint256"
        },
        {
          "internalType": "uint256",
          "name": "com",
          "type": "uint256"
        }
      ],
      "name": "buyItem",
      "outputs": [],
      "stateMutability": "payable",
      "type": "function"
    },
    {
      "inputs": [
        {
          "internalType": "address",
          "name": "nftAddress",
          "type": "address"
        },
        {
          "internalType": "uint256",
          "name": "tokenId",
          "type": "uint256"
        },
        {
          "internalType": "uint256",
          "name": "com",
          "type": "uint256"
        }
      ],
      "name": "cancelListing",
      "outputs": [],
      "stateMutability": "nonpayable",
      "type": "function"
    },
    {
      "inputs": [
        {
          "internalType": "address",
          "name": "zkNftAddress",
          "type": "address"
        },
        {
          "internalType": "address",
          "name": "convertableNft",
          "type": "address"
        },
        {
          "internalType": "uint256",
          "name": "tokenId",
          "type": "uint256"
        },
        {
          "internalType": "uint256",
          "name": "com",
          "type": "uint256"
        }
      ],
      "name": "convertToERC721",
      "outputs": [],
      "stateMutability": "payable",
      "type": "function"
    },
    {
      "inputs": [
        {
          "internalType": "address",
          "name": "nftAddress",
          "type": "address"
        },
        {
          "internalType": "uint256",
          "name": "tokenId",
          "type": "uint256"
        }
      ],
      "name": "getListing",
      "outputs": [
        {
          "components": [
            {
              "internalType": "uint256",
              "name": "price",
              "type": "uint256"
            },
            {
              "internalType": "uint256",
              "name": "seller",
              "type": "uint256"
            }
          ],
          "internalType": "struct NftMarketplace.Listing",
          "name": "",
          "type": "tuple"
        }
      ],
      "stateMutability": "view",
      "type": "function"
    },
    {
      "inputs": [
        {
          "internalType": "uint256",
          "name": "sellerCom",
          "type": "uint256"
        }
      ],
      "name": "getProceeds",
      "outputs": [
        {
          "internalType": "uint256",
          "name": "",
          "type": "uint256"
        }
      ],
      "stateMutability": "view",
      "type": "function"
    },
    {
      "inputs": [
        {
          "internalType": "address",
          "name": "nftAddress",
          "type": "address"
        },
        {
          "internalType": "uint256",
          "name": "tokenId",
          "type": "uint256"
        },
        {
          "internalType": "uint256",
          "name": "price",
          "type": "uint256"
        },
        {
          "internalType": "uint256",
          "name": "com",
          "type": "uint256"
        }
      ],
      "name": "listItem",
      "outputs": [],
      "stateMutability": "nonpayable",
      "type": "function"
    },
    {
      "inputs": [
        {
          "internalType": "uint256",
          "name": "_fee",
          "type": "uint256"
        }
      ],
      "name": "setBuyerFee",
      "outputs": [],
      "stateMutability": "nonpayable",
      "type": "function"
    },
    {
      "inputs": [
        {
          "internalType": "uint256",
          "name": "_fee",
          "type": "uint256"
        }
      ],
      "name": "setConversionFee",
      "outputs": [],
      "stateMutability": "nonpayable",
      "type": "function"
    },
    {
      "inputs": [
        {
          "internalType": "uint256",
          "name": "_fee",
          "type": "uint256"
        }
      ],
      "name": "setCreationFee",
      "outputs": [],
      "stateMutability": "nonpayable",
      "type": "function"
    },
    {
      "inputs": [
        {
          "internalType": "address",
          "name": "nftAddress",
          "type": "address"
        },
        {
          "internalType": "uint256",
          "name": "tokenId",
          "type": "uint256"
        },
        {
          "internalType": "uint256",
          "name": "newPrice",
          "type": "uint256"
        },
        {
          "internalType": "uint256",
          "name": "com",
          "type": "uint256"
        }
      ],
      "name": "updateListing",
      "outputs": [],
      "stateMutability": "nonpayable",
      "type": "function"
    },
    {
      "inputs": [
        {
          "internalType": "uint256[2]",
          "name": "_pA",
          "type": "uint256[2]"
        },
        {
          "internalType": "uint256[2][2]",
          "name": "_pB",
          "type": "uint256[2][2]"
        },
        {
          "internalType": "uint256[2]",
          "name": "_pC",
          "type": "uint256[2]"
        },
        {
          "internalType": "uint256",
          "name": "nul",
          "type": "uint256"
        },
        {
          "internalType": "uint256",
          "name": "com",
          "type": "uint256"
        },
        {
          "internalType": "uint256",
          "name": "price",
          "type": "uint256"
        }
      ],
      "name": "withdrawReward",
      "outputs": [],
      "stateMutability": "nonpayable",
      "type": "function"
    }
  ],
  "transactionHash": "0xd98a8ac1b34d32a844533356196a2a4c10c6aba94ef9e226930cd339fa98c4cf",
  "args": [
    "0x643bB72abD9ebA42339D70e3a72Cb5911d2a4a9b",
    "0x93e89142Fc3bDEd1a47405ef226D1298FB0BfFE5"
  ],
  "numDeployments": 2,
  "solcInputHash": "2b06c5c0e789f84ad75673499fbe69c8",
  "bytecode": "0x60806040526000600255600060035560006004553480156200002057600080fd5b506040516200251d3803806200251d833981810160405281019062000046919062000183565b600160008190555081600160006101000a81548173ffffffffffffffffffffffffffffffffffffffff021916908373ffffffffffffffffffffffffffffffffffffffff16021790555080600560006101000a81548173ffffffffffffffffffffffffffffffffffffffff021916908373ffffffffffffffffffffffffffffffffffffffff16021790555033600660006101000a81548173ffffffffffffffffffffffffffffffffffffffff021916908373ffffffffffffffffffffffffffffffffffffffff1602179055505050620001ca565b600080fd5b600073ffffffffffffffffffffffffffffffffffffffff82169050919050565b60006200014b826200011e565b9050919050565b6200015d816200013e565b81146200016957600080fd5b50565b6000815190506200017d8162000152565b92915050565b600080604083850312156200019d576200019c62000119565b5b6000620001ad858286016200016c565b9250506020620001c0858286016200016c565b9150509250929050565b61234380620001da6000396000f3fe60806040526004361061009c5760003560e01c8063b7d8622511610064578063b7d8622514610189578063bcb143ef146101b2578063c88b7c8e146101db578063d996475714610204578063f6b45c461461022d578063fa7da19d146102495761009c565b8063217cdb35146100a157806339eb07fa146100bd5780634b3320e0146100e657806381b1fc7a1461010f57806388700d1c1461014c575b600080fd5b6100bb60048036038101906100b691906118fe565b610272565b005b3480156100c957600080fd5b506100e460048036038101906100df91906119ae565b6104b8565b005b3480156100f257600080fd5b5061010d60048036038101906101089190611a3f565b610832565b005b34801561011b57600080fd5b5061013660048036038101906101319190611a92565b610a9c565b6040516101439190611ace565b60405180910390f35b34801561015857600080fd5b50610173600480360381019061016e9190611ae9565b610ab9565b6040516101809190611b67565b60405180910390f35b34801561019557600080fd5b506101b060048036038101906101ab9190611a92565b610b38565b005b3480156101be57600080fd5b506101d960048036038101906101d49190611b82565b610bc9565b005b3480156101e757600080fd5b5061020260048036038101906101fd9190611a92565b611004565b005b34801561021057600080fd5b5061022b60048036038101906102269190611b82565b611095565b005b61024760048036038101906102429190611a3f565b611315565b005b34801561025557600080fd5b50610270600480360381019061026b9190611a92565b611698565b005b60003373ffffffffffffffffffffffffffffffffffffffff1660045460405161029a90611c1a565b60006040518083038185875af1925050503d80600081146102d7576040519150601f19603f3d011682016040523d82523d6000602084013e6102dc565b606091505b5050905080610317576040517fbf961a2800000000000000000000000000000000000000000000000000000000815260040160405180910390fd5b60008573ffffffffffffffffffffffffffffffffffffffff16633bb3a24d856040518263ffffffff1660e01b81526004016103529190611ace565b600060405180830381865afa15801561036f573d6000803e3d6000fd5b505050506040513d6000823e3d601f19601f820116820180604052508101906103989190611d90565b90508573ffffffffffffffffffffffffffffffffffffffff16631c4b2bb98585336040518463ffffffff1660e01b81526004016103d793929190611de8565b600060405180830381600087803b1580156103f157600080fd5b505af1158015610405573d6000803e3d6000fd5b505050508473ffffffffffffffffffffffffffffffffffffffff166311f87b1933836040518363ffffffff1660e01b8152600401610444929190611e74565b600060405180830381600087803b15801561045e57600080fd5b505af1158015610472573d6000803e3d6000fd5b50505050837fedfa780d7781a8b1783d9fd71ece3fafd0470cbdf1276685916e081d3be6223f87876040516104a8929190611ea4565b60405180910390a2505050505050565b6009600084815260200190815260200160002060009054906101000a900460ff1615610510576040517fcad2ae0200000000000000000000000000000000000000000000000000000000815260040160405180910390fd5b60003373ffffffffffffffffffffffffffffffffffffffff1690506000600560009054906101000a900473ffffffffffffffffffffffffffffffffffffffff1673ffffffffffffffffffffffffffffffffffffffff168888886040518060400160405280898152602001878152506040516024016105919493929190612041565b60405160208183030381529060405263f5c9d69e60e01b6020820180517bffffffffffffffffffffffffffffffffffffffffffffffffffffffff83818316178352505050506040516105e391906120c4565b6000604051808303816000865af19150503d8060008114610620576040519150601f19603f3d011682016040523d82523d6000602084013e610625565b606091505b5050905080610660576040517f09bde33900000000000000000000000000000000000000000000000000000000815260040160405180910390fd5b600060086000868152602001908152602001600020549050600081116106b2576040517fc4d8fa8700000000000000000000000000000000000000000000000000000000815260040160405180910390fd5b808411156106ec576040517ff4d678b800000000000000000000000000000000000000000000000000000000815260040160405180910390fd5b600084826106fa919061210a565b90506000810361075d576000600a600088815260200190815260200160002060006101000a81548160ff02191690831515021790555060016009600089815260200190815260200160002060006101000a81548160ff0219169083151502179055505b80600860008881526020019081526020016000208190555060003373ffffffffffffffffffffffffffffffffffffffff166002548761079c919061210a565b6040516107a890611c1a565b60006040518083038185875af1925050503d80600081146107e5576040519150601f19603f3d011682016040523d82523d6000602084013e6107ea565b606091505b5050905080610825576040517fbf961a2800000000000000000000000000000000000000000000000000000000815260040160405180910390fd5b5050505050505050505050565b828282600083905060008173ffffffffffffffffffffffffffffffffffffffff16636352211e856040518263ffffffff1660e01b81526004016108759190611ace565b602060405180830381865afa158015610892573d6000803e3d6000fd5b505050506040513d601f19601f820116820180604052508101906108b69190612153565b90508083146108f1576040517f30cd747100000000000000000000000000000000000000000000000000000000815260040160405180910390fd5b87876000600760008473ffffffffffffffffffffffffffffffffffffffff1673ffffffffffffffffffffffffffffffffffffffff168152602001908152602001600020600083815260200190815260200160002060405180604001604052908160008201548152602001600182015481525050905060008160000151116109b15782826040517f6831488c0000000000000000000000000000000000000000000000000000000081526004016109a8929190612180565b60405180910390fd5b600760008c73ffffffffffffffffffffffffffffffffffffffff1673ffffffffffffffffffffffffffffffffffffffff16815260200190815260200160002060008b8152602001908152602001600020600080820160009055600182016000905550506000600a60008b815260200190815260200160002060006101000a81548160ff021916908315150217905550898b73ffffffffffffffffffffffffffffffffffffffff167fb407ecd2b3b64ae3cf35d828f7155fc60edd9911030438178310f6498bb0328f8b604051610a879190611ace565b60405180910390a35050505050505050505050565b600060086000838152602001908152602001600020549050919050565b610ac161183c565b600760008473ffffffffffffffffffffffffffffffffffffffff1673ffffffffffffffffffffffffffffffffffffffff168152602001908152602001600020600083815260200190815260200160002060405180604001604052908160008201548152602001600182015481525050905092915050565b600660009054906101000a900473ffffffffffffffffffffffffffffffffffffffff1673ffffffffffffffffffffffffffffffffffffffff163373ffffffffffffffffffffffffffffffffffffffff1614610bbf576040517f3121268600000000000000000000000000000000000000000000000000000000815260040160405180910390fd5b8060028190555050565b83836000600760008473ffffffffffffffffffffffffffffffffffffffff1673ffffffffffffffffffffffffffffffffffffffff1681526020019081526020016000206000838152602001908152602001600020604051806040016040529081600082015481526020016001820154815250509050600081600001511115610c8a5782826040517f4a5568d5000000000000000000000000000000000000000000000000000000008152600401610c81929190612180565b60405180910390fd5b868685600083905060008173ffffffffffffffffffffffffffffffffffffffff16636352211e856040518263ffffffff1660e01b8152600401610ccd9190611ace565b602060405180830381865afa158015610cea573d6000803e3d6000fd5b505050506040513d601f19601f82011682018060405250810190610d0e9190612153565b9050808314610d49576040517f30cd747100000000000000000000000000000000000000000000000000000000815260040160405180910390fd5b600a60008a815260200190815260200160002060009054906101000a900460ff1615610da1576040517fb7c01e1e00000000000000000000000000000000000000000000000000000000815260040160405180910390fd5b60008a11610ddb576040517fe1abbfc500000000000000000000000000000000000000000000000000000000815260040160405180910390fd5b60008c90503073ffffffffffffffffffffffffffffffffffffffff168173ffffffffffffffffffffffffffffffffffffffff1663d78092528e6040518263ffffffff1660e01b8152600401610e309190611ace565b602060405180830381865afa158015610e4d573d6000803e3d6000fd5b505050506040513d601f19601f82011682018060405250810190610e7191906121be565b73ffffffffffffffffffffffffffffffffffffffff1614610ebe576040517f4be3a2c500000000000000000000000000000000000000000000000000000000815260040160405180910390fd5b60405180604001604052808c81526020018b815250600760008f73ffffffffffffffffffffffffffffffffffffffff1673ffffffffffffffffffffffffffffffffffffffff16815260200190815260200160002060008e81526020019081526020016000206000820151816000015560208201518160010155905050610f786040518060400160405280600681526020017f5368756b61720000000000000000000000000000000000000000000000000000815250611729565b8b8d73ffffffffffffffffffffffffffffffffffffffff167fb7070c3c377d2fb697e5ddc72b0283eb751116d682ff1cdb579eab77bcc4013b8c8e604051610fc19291906121eb565b60405180910390a36001600a60008c815260200190815260200160002060006101000a81548160ff02191690831515021790555050505050505050505050505050565b600660009054906101000a900473ffffffffffffffffffffffffffffffffffffffff1673ffffffffffffffffffffffffffffffffffffffff163373ffffffffffffffffffffffffffffffffffffffff161461108b576040517f3121268600000000000000000000000000000000000000000000000000000000815260040160405180910390fd5b8060048190555050565b83836000600760008473ffffffffffffffffffffffffffffffffffffffff1673ffffffffffffffffffffffffffffffffffffffff168152602001908152602001600020600083815260200190815260200160002060405180604001604052908160008201548152602001600182015481525050905060008160000151116111555782826040517f6831488c00000000000000000000000000000000000000000000000000000000815260040161114c929190612180565b60405180910390fd5b61115d6117c2565b868685600083905060008173ffffffffffffffffffffffffffffffffffffffff16636352211e856040518263ffffffff1660e01b81526004016111a09190611ace565b602060405180830381865afa1580156111bd573d6000803e3d6000fd5b505050506040513d601f19601f820116820180604052508101906111e19190612153565b905080831461121c576040517f30cd747100000000000000000000000000000000000000000000000000000000815260040160405180910390fd5b60008a11611256576040517fe1abbfc500000000000000000000000000000000000000000000000000000000815260040160405180910390fd5b89600760008e73ffffffffffffffffffffffffffffffffffffffff1673ffffffffffffffffffffffffffffffffffffffff16815260200190815260200160002060008d8152602001908152602001600020600001819055508a8c73ffffffffffffffffffffffffffffffffffffffff167fb7070c3c377d2fb697e5ddc72b0283eb751116d682ff1cdb579eab77bcc4013b8b8d6040516112f79291906121eb565b60405180910390a3505050505061130c611811565b50505050505050565b82826000600760008473ffffffffffffffffffffffffffffffffffffffff1673ffffffffffffffffffffffffffffffffffffffff168152602001908152602001600020600083815260200190815260200160002060405180604001604052908160008201548152602001600182015481525050905060008160000151116113d55782826040517f6831488c0000000000000000000000000000000000000000000000000000000081526004016113cc929190612180565b60405180910390fd5b6113dd6117c2565b6000600760008873ffffffffffffffffffffffffffffffffffffffff1673ffffffffffffffffffffffffffffffffffffffff168152602001908152602001600020600087815260200190815260200160002060405180604001604052908160008201548152602001600182015481525050905060035481600001516114629190612214565b3410156114ae57868682600001516040517f7c9345650000000000000000000000000000000000000000000000000000000081526004016114a593929190612248565b60405180910390fd5b34600860008360200151815260200190815260200160002060008282546114d59190612214565b92505081905550600760008873ffffffffffffffffffffffffffffffffffffffff1673ffffffffffffffffffffffffffffffffffffffff1681526020019081526020016000206000878152602001908152602001600020600080820160009055600182016000905550508673ffffffffffffffffffffffffffffffffffffffff16638894c4468787336040518463ffffffff1660e01b815260040161157c93929190611de8565b600060405180830381600087803b15801561159657600080fd5b505af11580156115aa573d6000803e3d6000fd5b50505050858773ffffffffffffffffffffffffffffffffffffffff167f8c912d39752dc1f52744615b409bb9cd946102bab9b0e6316d0a6ea0c3a1372a8784600001516040516115fb9291906121eb565b60405180910390a3600a600086815260200190815260200160002060009054906101000a900460ff161561165b576040517fb7c01e1e00000000000000000000000000000000000000000000000000000000815260040160405180910390fd5b6001600a600087815260200190815260200160002060006101000a81548160ff02191690831515021790555050611690611811565b505050505050565b600660009054906101000a900473ffffffffffffffffffffffffffffffffffffffff1673ffffffffffffffffffffffffffffffffffffffff163373ffffffffffffffffffffffffffffffffffffffff161461171f576040517f3121268600000000000000000000000000000000000000000000000000000000815260040160405180910390fd5b8060038190555050565b6117bf8160405160240161173d919061227f565b6040516020818303038152906040527f41304fac000000000000000000000000000000000000000000000000000000007bffffffffffffffffffffffffffffffffffffffffffffffffffffffff19166020820180517bffffffffffffffffffffffffffffffffffffffffffffffffffffffff838183161783525050505061181b565b50565b600260005403611807576040517f08c379a00000000000000000000000000000000000000000000000000000000081526004016117fe906122ed565b60405180910390fd5b6002600081905550565b6001600081905550565b60006a636f6e736f6c652e6c6f679050600080835160208501845afa505050565b604051806040016040528060008152602001600081525090565b6000604051905090565b600080fd5b600080fd5b600073ffffffffffffffffffffffffffffffffffffffff82169050919050565b60006118958261186a565b9050919050565b6118a58161188a565b81146118b057600080fd5b50565b6000813590506118c28161189c565b92915050565b6000819050919050565b6118db816118c8565b81146118e657600080fd5b50565b6000813590506118f8816118d2565b92915050565b6000806000806080858703121561191857611917611860565b5b6000611926878288016118b3565b9450506020611937878288016118b3565b9350506040611948878288016118e9565b9250506060611959878288016118e9565b91505092959194509250565b600080fd5b60008190508260206002028201111561198657611985611965565b5b92915050565b6000819050826040600202820111156119a8576119a7611965565b5b92915050565b60008060008060008061016087890312156119cc576119cb611860565b5b60006119da89828a0161196a565b96505060406119eb89828a0161198c565b95505060c06119fc89828a0161196a565b945050610100611a0e89828a016118e9565b935050610120611a2089828a016118e9565b925050610140611a3289828a016118e9565b9150509295509295509295565b600080600060608486031215611a5857611a57611860565b5b6000611a66868287016118b3565b9350506020611a77868287016118e9565b9250506040611a88868287016118e9565b9150509250925092565b600060208284031215611aa857611aa7611860565b5b6000611ab6848285016118e9565b91505092915050565b611ac8816118c8565b82525050565b6000602082019050611ae36000830184611abf565b92915050565b60008060408385031215611b0057611aff611860565b5b6000611b0e858286016118b3565b9250506020611b1f858286016118e9565b9150509250929050565b611b32816118c8565b82525050565b604082016000820151611b4e6000850182611b29565b506020820151611b616020850182611b29565b50505050565b6000604082019050611b7c6000830184611b38565b92915050565b60008060008060808587031215611b9c57611b9b611860565b5b6000611baa878288016118b3565b9450506020611bbb878288016118e9565b9350506040611bcc878288016118e9565b9250506060611bdd878288016118e9565b91505092959194509250565b600081905092915050565b50565b6000611c04600083611be9565b9150611c0f82611bf4565b600082019050919050565b6000611c2582611bf7565b9150819050919050565b600080fd5b600080fd5b6000601f19601f8301169050919050565b7f4e487b7100000000000000000000000000000000000000000000000000000000600052604160045260246000fd5b611c8282611c39565b810181811067ffffffffffffffff82111715611ca157611ca0611c4a565b5b80604052505050565b6000611cb4611856565b9050611cc08282611c79565b919050565b600067ffffffffffffffff821115611ce057611cdf611c4a565b5b611ce982611c39565b9050602081019050919050565b60005b83811015611d14578082015181840152602081019050611cf9565b60008484015250505050565b6000611d33611d2e84611cc5565b611caa565b905082815260208101848484011115611d4f57611d4e611c34565b5b611d5a848285611cf6565b509392505050565b600082601f830112611d7757611d76611c2f565b5b8151611d87848260208601611d20565b91505092915050565b600060208284031215611da657611da5611860565b5b600082015167ffffffffffffffff811115611dc457611dc3611865565b5b611dd084828501611d62565b91505092915050565b611de28161188a565b82525050565b6000606082019050611dfd6000830186611abf565b611e0a6020830185611abf565b611e176040830184611dd9565b949350505050565b600081519050919050565b600082825260208201905092915050565b6000611e4682611e1f565b611e508185611e2a565b9350611e60818560208601611cf6565b611e6981611c39565b840191505092915050565b6000604082019050611e896000830185611dd9565b8181036020830152611e9b8184611e3b565b90509392505050565b6000604082019050611eb96000830185611dd9565b611ec66020830184611dd9565b9392505050565b82818337505050565b611ee260408383611ecd565b5050565b600060029050919050565b600081905092915050565b6000819050919050565b611f1260408383611ecd565b5050565b6000611f228383611f06565b60408301905092915050565b600082905092915050565b6000604082019050919050565b611f4f81611ee6565b611f598184611ef1565b9250611f6482611efc565b8060005b83811015611f9d57611f7a8284611f2e565b611f848782611f16565b9650611f8f83611f39565b925050600181019050611f68565b505050505050565b600060029050919050565b600081905092915050565b6000819050919050565b6000611fd18383611b29565b60208301905092915050565b6000602082019050919050565b611ff381611fa5565b611ffd8184611fb0565b925061200882611fbb565b8060005b838110156120395781516120208782611fc5565b965061202b83611fdd565b92505060018101905061200c565b505050505050565b6000610140820190506120576000830187611ed6565b6120646040830186611f46565b61207160c0830185611ed6565b61207f610100830184611fea565b95945050505050565b600081519050919050565b600061209e82612088565b6120a88185611be9565b93506120b8818560208601611cf6565b80840191505092915050565b60006120d08284612093565b915081905092915050565b7f4e487b7100000000000000000000000000000000000000000000000000000000600052601160045260246000fd5b6000612115826118c8565b9150612120836118c8565b9250828203905081811115612138576121376120db565b5b92915050565b60008151905061214d816118d2565b92915050565b60006020828403121561216957612168611860565b5b60006121778482850161213e565b91505092915050565b60006040820190506121956000830185611dd9565b6121a26020830184611abf565b9392505050565b6000815190506121b88161189c565b92915050565b6000602082840312156121d4576121d3611860565b5b60006121e2848285016121a9565b91505092915050565b60006040820190506122006000830185611abf565b61220d6020830184611abf565b9392505050565b600061221f826118c8565b915061222a836118c8565b9250828201905080821115612242576122416120db565b5b92915050565b600060608201905061225d6000830186611dd9565b61226a6020830185611abf565b6122776040830184611abf565b949350505050565b600060208201905081810360008301526122998184611e3b565b905092915050565b7f5265656e7472616e637947756172643a207265656e7472616e742063616c6c00600082015250565b60006122d7601f83611e2a565b91506122e2826122a1565b602082019050919050565b60006020820190508181036000830152612306816122ca565b905091905056fea2646970667358221220a2c8dddbd322acbe864b2f5ff14e324477d01be0b4b442154416955f4de9854864736f6c63430008110033",
  "devdoc": {
    "kind": "dev",
    "methods": {},
    "version": 1
  },
  "userdoc": {
    "kind": "user",
    "methods": {},
    "version": 1
  },
  "storageLayout": {
    "storage": [
      {
        "astId": 38,
        "contract": "contracts/nftMarketPlace.sol:NftMarketplace",
        "label": "_status",
        "offset": 0,
        "slot": "0",
        "type": "t_uint256"
      },
      {
        "astId": 3407,
        "contract": "contracts/nftMarketPlace.sol:NftMarketplace",
        "label": "hasher",
        "offset": 0,
        "slot": "1",
        "type": "t_contract(Hasher)3232"
      },
      {
        "astId": 3410,
        "contract": "contracts/nftMarketPlace.sol:NftMarketplace",
        "label": "creationFee",
        "offset": 0,
        "slot": "2",
        "type": "t_uint256"
      },
      {
        "astId": 3413,
        "contract": "contracts/nftMarketPlace.sol:NftMarketplace",
        "label": "marketFee",
        "offset": 0,
        "slot": "3",
        "type": "t_uint256"
      },
      {
        "astId": 3416,
        "contract": "contracts/nftMarketPlace.sol:NftMarketplace",
        "label": "conversionFee",
        "offset": 0,
        "slot": "4",
        "type": "t_uint256"
      },
      {
        "astId": 3418,
        "contract": "contracts/nftMarketPlace.sol:NftMarketplace",
        "label": "verifier",
        "offset": 0,
        "slot": "5",
        "type": "t_address"
      },
      {
        "astId": 3420,
        "contract": "contracts/nftMarketPlace.sol:NftMarketplace",
        "label": "authority",
        "offset": 0,
        "slot": "6",
        "type": "t_address"
      },
      {
        "astId": 3427,
        "contract": "contracts/nftMarketPlace.sol:NftMarketplace",
        "label": "s_listings",
        "offset": 0,
        "slot": "7",
        "type": "t_mapping(t_address,t_mapping(t_uint256,t_struct(Listing)3368_storage))"
      },
      {
        "astId": 3431,
        "contract": "contracts/nftMarketPlace.sol:NftMarketplace",
        "label": "s_proceeds",
        "offset": 0,
        "slot": "8",
        "type": "t_mapping(t_uint256,t_uint256)"
      },
      {
        "astId": 3435,
        "contract": "contracts/nftMarketPlace.sol:NftMarketplace",
        "label": "nullifiers",
        "offset": 0,
        "slot": "9",
        "type": "t_mapping(t_uint256,t_bool)"
      },
      {
        "astId": 3439,
        "contract": "contracts/nftMarketPlace.sol:NftMarketplace",
        "label": "commitments",
        "offset": 0,
        "slot": "10",
        "type": "t_mapping(t_uint256,t_bool)"
      }
    ],
    "types": {
      "t_address": {
        "encoding": "inplace",
        "label": "address",
        "numberOfBytes": "20"
      },
      "t_bool": {
        "encoding": "inplace",
        "label": "bool",
        "numberOfBytes": "1"
      },
      "t_contract(Hasher)3232": {
        "encoding": "inplace",
        "label": "contract Hasher",
        "numberOfBytes": "20"
      },
      "t_mapping(t_address,t_mapping(t_uint256,t_struct(Listing)3368_storage))": {
        "encoding": "mapping",
        "key": "t_address",
        "label": "mapping(address => mapping(uint256 => struct NftMarketplace.Listing))",
        "numberOfBytes": "32",
        "value": "t_mapping(t_uint256,t_struct(Listing)3368_storage)"
      },
      "t_mapping(t_uint256,t_bool)": {
        "encoding": "mapping",
        "key": "t_uint256",
        "label": "mapping(uint256 => bool)",
        "numberOfBytes": "32",
        "value": "t_bool"
      },
      "t_mapping(t_uint256,t_struct(Listing)3368_storage)": {
        "encoding": "mapping",
        "key": "t_uint256",
        "label": "mapping(uint256 => struct NftMarketplace.Listing)",
        "numberOfBytes": "32",
        "value": "t_struct(Listing)3368_storage"
      },
      "t_mapping(t_uint256,t_uint256)": {
        "encoding": "mapping",
        "key": "t_uint256",
        "label": "mapping(uint256 => uint256)",
        "numberOfBytes": "32",
        "value": "t_uint256"
      },
      "t_struct(Listing)3368_storage": {
        "encoding": "inplace",
        "label": "struct NftMarketplace.Listing",
        "members": [
          {
            "astId": 3365,
            "contract": "contracts/nftMarketPlace.sol:NftMarketplace",
            "label": "price",
            "offset": 0,
            "slot": "0",
            "type": "t_uint256"
          },
          {
            "astId": 3367,
            "contract": "contracts/nftMarketPlace.sol:NftMarketplace",
            "label": "seller",
            "offset": 0,
            "slot": "1",
            "type": "t_uint256"
          }
        ],
        "numberOfBytes": "64"
      },
      "t_uint256": {
        "encoding": "inplace",
        "label": "uint256",
        "numberOfBytes": "32"
      }
    }
  }
}